:020000040800F2
:1000000000A000205D0200086102000863020008F1
:10001000790200087B02000891020008000000003D
:10002000000000000000000000000000A70200081F
:10003000A902000800000000AB0200087D110008C2
:10004000C1020008C1020008C1020008C102000884
:10005000C1020008C1020008C1020008C102000874
:10006000C1020008C1020008C1020008C102000864
:10007000C1020008C1020008C1020008C102000854
:10008000C1020008C1020008C1020008C102000844
:10009000C1020008C1020008C1020008C102000834
:1000A000C1020008C1020008C1020008C102000824
:1000B000C1020008C1020008C1020008C102000814
:1000C000C1020008C1020008C1020008C102000804
:1000D000C1020008C1020008C1020008C1020008F4
:1000E000C1020008C1020008C1020008C1020008E4
:1000F000C1020008C1020008C1020008C1020008D4
:10010000000000000000000000000000C102000824
:10011000C1020008C1020008C1020008C1020008B3
:10012000C1020008C1020008C1020008C1020008A3
:10013000C1020008C1020008000000000000000029
:10014000C1020008C1020008C1020008000000004E
:10015000000000000000000000000000000000009F
:100160000000000000000000C1020008C1020008F9
:10017000C1020008000000000000000000000000B4
:1001800000000000C102000807B500F0A1FB294BE8
:10019000294A93420BD293E806000C3353F8040C1F
:1001A0009042F5D951F8044B42F8044BF8E7234B41
:1001B000234A934209D253F8082B53F8041C8A426D
:1001C000F6D2002042F8040BF9E700F083FB684602
:1001D00001A900F075FB1B4C1B4BE41AA410002571
:1001E0001E46A54204DA56F8253098470135F8E74F
:1001F000164B174CE41AA41000251E46A54204DA3B
:1002000056F8253098470135F8E79DE8030000F0DF
:10021000CBFF104C104BE41A0646A4101D46002CD0
:1002200004DD013C55F824309847F8E7304600F0EB
:1002300044FB00BFC4020008DC020008DC02000826
:10024000EC020008EC020008EC020008EC020008D6
:10025000EC020008EC020008EC0200081448004719
:10026000FEE71EF0040F0CBFEFF30880EFF30980E8
:100270007146104A1047FEE7FEE71EF0040F0CBF60
:10028000EFF30880EFF3098071460B4A1047FEE751
:100290001EF0040F0CBFEFF30880EFF309807146E6
:1002A000064A1047FEE7FEE7FEE7FEE7704700005C
:1002B00089010008770200088F020008A5020008E3
:0202C000FEE757
:1002C4009C230008000000207C0400209C230008DC
:1002D40000000010000000107C04002084040020B2
:0802E4000000001000000010F2
:1002F000F0B500230F681C460125A54005EA070E4E
:10030000AE452BD10E79721E012A15D885680322BD
:100310009A4025EA020282604D7982689D40154329
:100320008560828892B222EA0E0282808A7985886C
:10033000A2402A4392B28280032205689A40D243A7
:100340001540056005689E402E430660C5682A403A
:10035000C260CA79C5689A402A43C2600134102C31
:1003600003F10203C8D1F0BD008A80B27047808AD1
:1003700080B27047816170470185704701F00703C3
:10038000C90800EB810010B59B00046A0F21994059
:1003900024EA01010162016A9A401143016210BD21
:1003A000F0B58E4D6B6803F00C03042B05D0082BC1
:1003B00006D08B4A0260B3B916E0894B036012E0A5
:1003C0006B686968C3F383439A1CCB0349BFEB6A2C
:1003D000844B834903F00F0344BF0133B1FBF3F3B4
:1003E0005343036000E000236A68DFF8FCE1DFF8B4
:1003F000FCC1C2F303121EF802700268FFB222FAB7
:1004000007F141606C68C4F302241EF8044021FA2D
:1004100004F686606C68C4F3C2241EF804E05FFA38
:100420008EFE21FA0EF1C160EC6AC4F304143CF8AC
:100430001440A4B214F0100F0EBF0261B3FBF4F429
:100440000461EC6AC4F344243CF81440A4B214F0F0
:10045000100F0EBF4261B3FBF4F444612C6BE40651
:100460005ABF5F4C846182612C6BA4065ABF5C4CFE
:10047000C461C2612C6BE40506D59A4204D1BE4525
:1004800002D15400046200E001622C6BA40506D581
:100490009A4204D1BE4502D15300436200E041625A
:1004A0002C6B4E4BA40701D1816215E0196B01F052
:1004B0000301012901D182620EE0196B01F00301F1
:1004C000022902D14FF4004305E01B6B03F0030344
:1004D000032B01D1424B8362296B404B11F4403F07
:1004E00001D1C66218E0196B01F44031B1F5803FCB
:1004F00001D1C26210E0196B01F44031B1F5003F47
:1005000002D14FF4004306E01B6B03F44033B3F514
:10051000403F01D1324BC362296B304B11F4402F65
:1005200001D1066318E0196B01F44021B1F5802F69
:1005300001D1026310E0196B01F44021B1F5002FE5
:1005400002D14FF4004306E01B6B03F44023B3F5E4
:10055000402F01D1224B0363296B204B11F4401F24
:1005600001D1466318E0196B01F44011B1F5801F09
:1005700001D1426310E0196B01F44011B1F5001F85
:1005800002D14FF4004306E01B6B03F44013B3F5B4
:10059000401F01D1124B4363296B104B11F4400FE4
:1005A00001D18663F0BD196B01F44001B1F5800FF4
:1005B00001D18263F0BD1A6B02F44002B2F5000F64
:1005C00002D14FF4004306E01B6B03F44003B3F584
:1005D000400F01D1024B8363F0BD00BF0010024009
:1005E00000127A0000093D001A00002000000020DF
:1005F000044B5A6909B1104301E022EA0000586136
:10060000704700BF00100240044B9A6909B11043C3
:1006100001E022EA00009861704700BF001002402C
:10062000204A038890429BB20ED002F500629042AD
:100630000AD0B0F1804F07D0A2F59832904203D093
:1006400002F58062904203D14A8823F0700313437D
:10065000154A904208D002F5806290421FBF23F4F1
:1006600040730A899BB2134303804B68C3620B88B3
:1006700003850C4B98420FD003F5006398420BD0D2
:1006800003F54063984207D003F58063984203D096
:1006900003F58063984201D18B7A0386012343617D
:1006A000704700BF002C014000100040038819B1C2
:1006B0009BB243F0010303E023F001031B041B0C76
:1006C00003807047036A23F001030362036A70B575
:1006D000446882690D6822F4803222F07302154367
:1006E0008A8923F0020313438A881343134A9042F2
:1006F0000FD002F5006290420BD002F540629042AA
:1007000007D002F58062904203D002F580629042E9
:100710000DD1CA89CE8823F0080313430A8A24F432
:10072000407414434A8A23F00403334314438A6811
:10073000446085614263036270BD00BF002C0140CC
:10074000036A23F010030362036A70B54468826988
:100750000D688E8922F0807222F4E64242EA052575
:1007600023F020028B88334342EA03130E4A90425F
:1007700003D002F50062904210D1CA890E8A23F09C
:10078000800343EA0213CA8823F0400343EA0213BA
:100790004A8A24F44064324344EA82048A6844600A
:1007A00085618263036270BD002C0140036A23F4FB
:1007B00080730362036A70B54468C5698E8925F049
:1007C00073020D68154323F400728B88334342EAA9
:1007D00003230F4A904203D002F50062904210D1E9
:1007E000CA890E8A23F4006343EA0223CA8823F4E9
:1007F000806343EA02234A8A24F44054324344EAA1
:1008000002148A684460C561C263036270BD00BFA0
:10081000002C0140036A23F480530362036A70B51D
:100820004568C4698E8924F4E6420C6842EA0424CF
:1008300023F400528B88334342EA0333084A904240
:1008400003D002F50062904204D10A8A25F4804563
:1008500045EA82158A684560C4610264036270BD1E
:10086000002C01404163704781637047C16370474A
:1008700001647047836923F008031943816170475D
:10088000836923F4006343EA012181617047C369EE
:1008900023F008031943C1617047C36923F400635F
:1008A00043EA0121C1617047436C11B143F4004335
:1008B00001E0C3F30E034364704708B500F00CF881
:1008C00001230360014B0B60704700BF2C00002028
:1008D00000F012B800F088B8BFF34F8F0449054B01
:1008E000CA6802F4E0621343CB60BFF34F8FFEE7A8
:1008F00000ED00E00400FA05364B1A6842F00102F0
:100900001A605968344A0A405A601A6822F08472A0
:1009100022F480321A601A6822F480221A605A681F
:1009200022F4FE025A60DA6A22F00F02DA62196BD0
:100930002A4A82B00A401A6300229A600092019209
:100940001A6842F480321A601A6802F40032019286
:10095000009A01320092019A1AB9009AB2F5A06F7A
:10096000F2D11A6812F4003218BF01220192019AE2
:10097000012A05D01A4B4FF000629A6002B070470E
:10098000184A122111605A685A605A685A605A68A7
:1009900042F480625A605A6822F47C125A605A68A3
:1009A00042F4E8125A601A6842F080721A601968BC
:1009B000084A8901FBD5516821F003015160516853
:1009C00041F0020151605A6802F00C02082AFAD183
:1009D000D0E700BF001002400CC07FF8CCFC00FF45
:1009E00000ED00E000200240144A1549536803F06E
:1009F0000C03042B10B501D0082B01D0114B12E0D1
:100A000053685068C00349BFD06A0F480D4C00F0CE
:100A10000F00C3F3834348BF013003F1020348BF13
:100A2000B4FBF0F043430B605368084AC3F303136D
:100A3000D25C0B68D3400B6010BD00BF00100240B9
:100A40004400002000127A0000093D00340000201C
:100A5000F7B507460F4E4FF400100121FFF7C8FD10
:100A6000012300244FF400458DF804303046032361
:100A700069468DF8053000958DF806408DF80740E1
:100A8000FFF736FC3C7230462946FFF775FC03B091
:100A9000F0BD00BF0010004810B50446E2064FF05C
:100AA00090404FF0100102D5FFF764FC01E0FFF722
:100AB00063FCA3064FF090404FF0200102D5FFF7F2
:100AC00059FC01E0FFF758FC62064FF090404FF0F0
:100AD000400102D5FFF74EFC01E0FFF74DFC230675
:100AE0004FF090404FF0800102D5FFF743FC01E04A
:100AF000FFF742FC04210648FFF73CFC032000F00E
:100B00002BFB03480421BDE81040FFF735BC00BFB4
:100B10000004004810B50446E2074FF090404FF043
:100B2000010102D5FFF726FC01E0FFF725FCA30732
:100B30004FF090404FF0020102D5FFF71BFC01E09F
:100B4000FFF71AFC62074FF090404FF0040102D506
:100B5000FFF710FC01E0FFF70FFC23074FF0904078
:100B60004FF0080102D5FFF705FC01E0FFF704FC98
:100B7000E2064FF090404FF0100102D5FFF7FAFB6C
:100B800001E0FFF7F9FBA3064FF090404FF0200182
:100B900002D5FFF7EFFB01E0FFF7EEFB62064FF037
:100BA00090404FF0400102D5FFF7E4FB01E0FFF772
:100BB000E3FB23064FF090404FF0800102D5FFF792
:100BC000D9FB01E0FFF7D8FB04210748FFF7D2FB70
:100BD000032000F0C1FA04480421FFF7CDFB0220F6
:100BE000BDE8104000F0B8BA0004004810B501217B
:100BF00004460448FFF7C0FB2046BDE81040FFF75D
:100C000089BF00BF00040048F0B593B003A8FFF708
:100C1000C7FB4FF47A72049BB3FBF2F3013BB3F1D1
:100C2000807F60D2304A5360304B00250727F02187
:100C300083F823104FF40030956001211760FFF70F
:100C4000D7FC0124FF23032601A94FF09040019314
:100C50008DF808408DF80A508DF809608DF80B501A
:100C6000FFF746FB21464FF48020FFF7C1FC01A9A6
:100C70001F4801978DF808408DF80A508DF80960DB
:100C80008DF80B50FFF734FB19480421FFF774FB74
:100C900021461748FFF770FB02211548FFF76CFB50
:100CA0001348FFF764FB102000F056FA3020FFF7DE
:100CB000F3FE052000F050FA3020FFF7EDFE20464D
:100CC00000F04AFA3020FFF7E7FE3820FFF78EFFEA
:100CD0000C20FFF78BFF2046FFF788FF0620FFF769
:100CE00085FF13B0F0BDFEE710E000E000ED00E08E
:100CF0000004004810B5012104460448FFF73AFB00
:100D00002046BDE81040FFF705BF00BF00040048C3
:100D100038B50A4D044621462846FFF7A5FD28466A
:100D20002146FFF79FFD28462146FFF79FFD2846F5
:100D30002146BDE83840FFF79BBD00BF002C0140B5
:100D40002DE9F0414FF400109AB00121FFF750FC5B
:100D50003B4E1AA94FF4007800250323022441F8E2
:100D6000648D30468DF809308DF808408DF80A50B2
:100D70008DF80B50FFF7BCFA224630460921314C62
:100D8000FFF7FCFA01214FF40060FFF73DFC0BA8D0
:100D9000FFF706FB0E9BADF81450204603A94FF455
:100DA0007A72B3FBF2F34A22013B0492ADF80C30A5
:100DB000ADF80E508DF81650FFF732FC6023069305
:100DC0004FF4807308260127ADF82830204604230D
:100DD00006A9ADF81E30ADF81C700895ADF824508A
:100DE000ADF82660ADF82A80FFF76CFC204631464E
:100DF000FFF740FD204606A9FFF7A2FC204631463A
:100E0000FFF73EFD204606A9FFF7D0FC20463146FD
:100E1000FFF73DFD204606A9FFF7FCFC31462046C2
:100E2000FFF73BFD2846FFF773FF20463946FFF7E3
:100E30003BFD20463946FFF739FC1AB0BDE8F0818A
:100E400000100048002C014008B5FFF7DDFEFFF759
:100E500077FF1420BDE80840FFF75ABFFFF74ABFED
:100E6000012988BF0021044B5B5C0F2888BF00204C
:100E70001844C0B2FFF7BABE1023000813B5002310
:100E800004460193019BE05CFFF734FF019B0120C6
:100E90000133019300F060F9019BE356002BF1D17F
:100EA00002B010BD08B50120FFF7A0FE0120BDE88B
:100EB000084000F051B900002DE9704304460026B7
:100EC0000125B540ADB222482946FFF753FA214823
:100ED000FFF74AFA10F0070026D000F0E3FE00F01A
:100EE00007FB804689461A482946FFF745FA16A3AC
:100EF000D3E900234046494601F074F801F0E2F9D5
:100F000006EB460313FA80F0227D235C934206D061
:100F100023750023E38204F11400BDE87083E28AA4
:100F2000322AF5D80023E382094829460136FFF723
:100F300023FA042EC4D1E38A322B9CBF0133E3820F
:100F40000020BDE8708300BFEF39FAFE422EE63F75
:100F500000080048000C00485F2303734373837349
:100F6000C3730023438203747047000070B50121EE
:100F700088B005464FF48010FFF73AFB4FF400208D
:100F80000121FFF735FB07230024032601932048A6
:100F90008DF80840022301A98DF80B308DF80A4026
:100FA0008DF80960FFF7A4F90F2303A903931948EB
:100FB0008DF8124001238DF810308DF811608DF8F6
:100FC0001340FFF795F928466E82EC82FFF7C4FFC5
:100FD000114A1068516805AB03C39068186005A9F1
:100FE0002B460A5D2A550A190334507892785870B6
:100FF0000C2C9A7003F10303F3D106480F21FFF77D
:10100000BBF903480721FFF7B7F908B070BD00BF6F
:10101000000C0048000800481423000810B50446DE
:10102000FFF74AFF0278232A03D12046FFF794FFF7
:1010300008E0638A032B07D82A2805D0E11801337A
:101040000A736382012010BD002010BD031F3830D9
:10105000002243F8042F8342FAD1704707B54FF4BA
:1010600000200121FFF7C4FA4FF408430093002346
:101070008DF804300322012306488DF806306946B6
:101080008DF805208DF80730FFF732F903B05DF8D1
:1010900004FB00BF0008004807B54FF40020012101
:1010A000FFF7A6FA4FF4E843009300238DF80430CD
:1010B0000448022369468DF80730FFF719F903B099
:1010C0005DF804FB0008004810B50446FFF7E4FF94
:1010D000FFF7C4FF2046BDE81040FFF7B7BF000090
:1010E00010B504460448FFF73FF90123A340184216
:1010F00014BF0120002010BD0008004838B5054687
:101100000C460846FFF7ECFF55F82430984205D00E
:1011100045F8240013B9012800D138BD002038BD9E
:101120000A4B4FF47A721B68B3FBF2F3013BB3F145
:10113000807F09D2064A5360064BF02183F82310C2
:101140000023936007231360704700BF4400002012
:1011500010E000E000ED00E0024B18601A68002A81
:10116000FCD1704780040020034B1A6812B11A6842
:10117000013A1A60704700BF80040020FFF7F4BFF7
:1011800010B5421E841D002302F8013FA242FAD18D
:101190003122C37103720A7032224A7033228A707C
:1011A0003422CA700B7110BD70B59AB005A8FFF754
:1011B000DDFEFFF7B5FF0BA8FFF786FF694602A823
:1011C000FFF7DEFFFFF740FE02A8FFF741FCFFF745
:1011D00069FE00200146FFF743FEB648FFF74EFECA
:1011E00000200121FFF73CFEB348FFF747FE05A8AA
:1011F000FFF7B2FE0F210BA8FFF780FF003018BFEA
:1012000001208DF808000B210BA8FFF777FF0030B5
:1012100018BF01208DF809000D210BA8FFF76EFF04
:10122000003018BF01208DF80A000E210BA8FFF72F
:1012300065FF003018BF01208DF80B000A210BA8B4
:10124000FFF75CFF003018BF01208DF80C000C2167
:101250000BA8FFF753FF003018BF01208DF80D00D9
:1012600005A8FFF7DBFE8DF80E00002861D0FFF720
:1012700019FE00200146FFF7F3FD9048FFF7FEFD41
:1012800000200121FFF7ECFD0DF11F060DF1FF35E8
:10129000012416F8010F10B9002C3CD00FE015F90D
:1012A000013F002BF8D0FFF7D9FD96F9002095F902
:1012B00000309A4214BF002404F00104E9E79DF8CD
:1012C0000F3005A883F001038DF80F30FFF744FEBF
:1012D0009DF80F4074B1FFF7E5FD00200146FFF7D0
:1012E000BFFD7748FFF7CAFD00200121FFF7B8FDD9
:1012F00074480DE0FFF7D6FD21462046FFF7B0FD0C
:101300006F48FFF7BBFD20460121FFF7A9FD6E489E
:10131000FFF7B4FD0DE0BDF82630042B09D12046BF
:101320000121FFF79DFD6948FFF7A8FD05A8FFF71C
:1013300013FE9DF80F30D3B19DF80830BBB164485F
:101340004FF4004101248DF81040FFF713F8FFF728
:10135000A9FD00200146FFF783FD5E48FFF78EFDE3
:1013600000202146FFF77CFD5B48FFF787FD9DF8D5
:101370000F30D3B19DF80930BBB155484FF400414F
:1013800001248DF81040FEF7F5FFFFF78BFD0020DC
:101390000146FFF765FD4F48FFF770FD002021462D
:1013A000FFF75EFD4D48FFF769FD9DF80F30D3B1A3
:1013B0009DF80A30BBB146484FF4004101248DF836
:1013C0001040FEF7D7FFFFF76DFD00200146FFF745
:1013D00047FD4048FFF752FD00202146FFF740FD42
:1013E0003F48FFF74BFD9DF80F30D3B19DF80B3010
:1013F000BBB137484FF4004101248DF81040FEF78F
:10140000B9FFFFF74FFD00200146FFF729FD3148E6
:10141000FFF734FD00202146FFF722FD3148FFF79A
:101420002DFD9DF80F30D3B19DF80C30BBB128488D
:101430004FF4004101248DF81040FEF79BFFFFF7A9
:1014400031FD00200146FFF70BFD2248FFF716FD96
:1014500000202146FFF704FD2348FFF70FFD9DF80C
:101460000F30D3B19DF80D30BBB119484FF4004196
:1014700001248DF81040FEF77DFFFFF713FD0020DB
:101480000146FFF7EDFC1348FFF7F8FC002021466A
:10149000FFF7E6FC1548FFF7F1FC9DF80F30002B35
:1014A0007FF4A8AE0A488DF810304FF40041FEF7E3
:1014B00063FF9FE62023000829230008302300084B
:1014C000352300083D230008462300084E2300086A
:1014D00000100048552300085C230008642300081E
:1014E0006C230008752300087E230008872300086A
:1014F0002DE9F041DFF8EC808AB006460F4600F097
:1015000073F898F90030013304460D460BD030468D
:10151000394600F051FA30B13046394600220023F6
:1015200000F0C6FE20B1204629460AB0BDE8F08191
:1015300098F80040274B0890CDE90267CDE9046791
:101540000193304639468CB9234D4FF06044002258
:101550000023CDE9064500F083FE002831D10123A8
:101560000093684600F054FA88B90CE01B4F00263F
:1015700000220023CDE9066700F072FE98B901232E
:10158000022C0093EDD100F0BDFE2123036014482E
:1015900000F040FACDE90601089BABB9DDE9060190
:1015A0000AB0BDE8F08102239C42009304D0684653
:1015B00000F02EFA0028EFD100F0A4FE22230360F1
:1015C000EAE702230093F2E700F09CFE089B036029
:1015D000E4E700BF90230008FFFFEFC70000F0FF23
:1015E00094230008480000202DE9F04FB1F5801F3A
:1015F00085B006460F460B465ADA024621F00044F3
:10160000224300F0F6800029C0F272810022DE4BF6
:1016100000F0BEFB0B460F46DC498B4206466FF0DE
:1016200035024ADCC3F3130505F5152404F664748A
:1016300004F4801E8EF07F5181F440111B15A3F23B
:10164000FF3341EA05079C1830460022D04B39464B
:1016500004EB1E5400F0E8F9AB1CC3F31303022B98
:1016600082468B464FF0000230DC002300F0F8FD8C
:10167000002800F0C780002C00F04381204600F0D5
:1016800021FBADA3D3E9002306460F4600F080FB03
:10169000ABA3D3E9002304460D463046394600F09B
:1016A00077FB02460B462046294600F0BFF90AE0C8
:1016B000B6498B424FF00002B4DD3046394632461F
:1016C0003B4600F0B3F905B0BDE8F08F4FF0804322
:1016D00000F0ACF902460B465046594600F082FC39
:1016E00006460F462046CDE9006700F0EBFA324689
:1016F000CDE902013B463046394600F049FB02463F
:101700000B468046894600F043FB8FA3D3E90023B4
:1017100006460F4600F03CFB8DA3D3E9002300F002
:1017200085F932463B4600F033FB8BA3D3E9002317
:1017300000F07CF932463B4600F02AFB88A3D3E94F
:10174000002300F073F942464B4600F021FB86A3CC
:10175000D3E90023804689463046394600F018FB1D
:1017600083A3D3E9002300F061F932463B4600F041
:101770000FFB81A3D3E9002300F058F932463B4622
:1017800000F006FB0B4602464946404600F04EF983
:10179000A5F5C223C5F5D725A3F27A4351351D43DC
:1017A000002D06460F4653DD00227A4B504659461F
:1017B00000F0EEFA52465B4600F0EAFA80468946AF
:1017C000002C60D132463B4600F030F9DDE90023C1
:1017D00000F0DEFA02460B464046494600F024F986
:1017E00002460B465046594600F01EF905B0BDE8CA
:1017F000F08F002200230020674900F0F3FB05B0C2
:10180000BDE8F08F52465B465046594600F0C0FA9C
:101810005BA3D3E9002306460F465046594600F025
:10182000B7FA02460B4600205A4900F0FDF802467E
:101830000B463046394600F0ABFA06460F46002C00
:1018400062D15046594632463B4600F0EDF83AE741
:10185000002C00F0A380DDE9028937A3D3E900233F
:101860004046494600F094FA32463B4604460D464F
:101870005046594600F0D8F8DDE9002300F088FA18
:1018800006460F464CE02CA3D3E90023DDE9020114
:1018900000F07EFA32463B4604460D464046494635
:1018A00000F0C4F8DDE9002300F072FA24A3D3E9C4
:1018B000002306460F46DDE9020100F069FA024600
:1018C0000B463046394600F0B1F802460B4640461A
:1018D000494600F0A9F852465B4600F0A5F80246DA
:1018E0000B462046294600F09FF805B0BDE8F08F72
:1018F00002460B4600F098F80022002300F072FB2D
:10190000E1E600200021DEE6204600F0DBF90AA334
:10191000D3E900238046894600F03AFA04460D4692
:1019200007A3D3E900234046494600F031FA0246B6
:101930000B4630463946CCE70000E0FE422EE63F3B
:10194000763C7935EF39EA3D44523EDF12F1C23F31
:10195000DE03CB966446C73F599322942449D23F75
:10196000935555555555E53F9FC678D0099AC33FC5
:10197000AF788E1DC571CC3F04FA97999999D93FDC
:10198000555555555555D53F00005043FFFFEF7F46
:101990000000F03F0000E03F000050C302460B464D
:1019A0005046594600F040F8DDE9002300F0F0F918
:1019B00016E700BFAFF3008010B431F0004408D048
:1019C000114BA1F580129A4208D804205DF8044B0F
:1019D000704718B902205DF8044B704701F1FF41D0
:1019E000094B01F5E0019942EFD9B4F5801F01D20E
:1019F0000320EBE7054B9C4201D00020E6E7B0FA5C
:101A000080F04009E2E700BFFFFFDF7F0000F07FCA
:101A10000020704700200149704700BF0000F87F98
:101A200081F0004102E000BF83F0004330B54FEA8F
:101A300041044FEA430594EA050F08BF90EA020FFC
:101A40001FBF54EA000C55EA020C7FEA645C7FEA8F
:101A5000655C00F0E2804FEA5454D4EB5555B8BFB2
:101A60006D420CDD2C4480EA020281EA030382EA23
:101A7000000083EA010180EA020281EA0303362DB5
:101A800088BF30BD11F0004F4FEA01314FF4801C88
:101A90004CEA113102D0404261EB410113F0004F9A
:101AA0004FEA03334CEA133302D0524263EB430351
:101AB00094EA050F00F0A780A4F10104D5F1200EEF
:101AC0000DDB02FA0EFC22FA05F2801841F100014A
:101AD00003FA0EF2801843FA05F359410EE0A5F11E
:101AE00020050EF1200E012A03FA0EFC28BF4CF04F
:101AF000020C43FA05F3C01851EBE37101F0004505
:101B000007D54FF0000EDCF1000C7EEB00006EEB11
:101B10000101B1F5801F1BD3B1F5001F0CD349089B
:101B20005FEA30004FEA3C0C04F101044FEA4452F2
:101B300012F5800F80F09A80BCF1004F08BF5FEA79
:101B4000500C50F1000041EB045141EA050130BD59
:101B50005FEA4C0C404141EB010111F4801FA4F1FC
:101B60000104E9D191F0000F04BF01460020B1FA51
:101B700081F308BF2033A3F10B03B3F120020CDA89
:101B80000C3208DD02F1140CC2F10C0201FA0CF067
:101B900021FA02F10CE002F11402D8BFC2F1200CCC
:101BA00001FA02F120FA0CFCDCBF41EA0C01904082
:101BB000E41AA2BF01EB0451294330BD6FEA0404CB
:101BC0001F3C1CDA0C340EDC04F11404C4F12002B6
:101BD00020FA04F001FA02F340EA030021FA04F3C8
:101BE00045EA030130BDC4F10C04C4F1200220FA1F
:101BF00002F001FA04F340EA0300294630BD21FA5D
:101C000004F0294630BD94F0000F83F4801306BF22
:101C100081F480110134013D4EE77FEA645C18BF16
:101C20007FEA655C29D094EA050F08BF90EA020FAD
:101C300005D054EA000C04BF1946104630BD91EAA5
:101C4000030F1EBF0021002030BD5FEA545C05D1A8
:101C50004000494128BF41F0004130BD14F58004E7
:101C60003CBF01F5801130BD01F0004545F0FE415B
:101C700041F470014FF0000030BD7FEA645C1ABF90
:101C8000194610467FEA655C1CBF0B46024650EAC7
:101C9000013406BF52EA033591EA030F41F40021F3
:101CA00030BD00BF90F0000F04BF0021704730B579
:101CB0004FF4806404F132044FF000054FF000014E
:101CC00050E700BF90F0000F04BF0021704730B50F
:101CD0004FF4806404F1320410F0004548BF4042E4
:101CE0004FF000013EE700BF42004FEAE2014FEA39
:101CF00031014FEA02701FBF12F07F4393F07F4F14
:101D000081F06051704792F0000F14BF93F07F4F45
:101D1000704730B54FF4607401F0004521F0004188
:101D200020E700BF50EA010208BF704730B54FF00E
:101D300000050AE050EA010208BF704730B511F013
:101D4000004502D5404261EB41014FF4806404F14B
:101D500032045FEA915C3FF4DCAE4FF003025FEACD
:101D6000DC0C18BF03325FEADC0C18BF033202EB55
:101D7000DC02C2F1200300FA03FC20FA02F001FAAF
:101D800003FE40EA0E0021FA02F11444C1E600BF4E
:101D900070B54FF0FF0C4CF4E06C1CEA11541DBF01
:101DA0001CEA135594EA0C0F95EA0C0F00F0DEF8CC
:101DB0002C4481EA030621EA4C5123EA4C5350EAB1
:101DC000013518BF52EA033541F4801143F4801302
:101DD00038D0A0FB02CE4FF00005E1FB02E506F093
:101DE0000042E0FB03E54FF00006E1FB03569CF0E8
:101DF000000F18BF4EF0010EA4F1FF04B6F5007FEE
:101E000064F5407404D25FEA4E0E6D4146EB06065F
:101E100042EAC62141EA55514FEAC52040EA5E50E8
:101E20004FEACE2EB4F1FD0C88BFBCF5E06F1ED892
:101E3000BEF1004F08BF5FEA500E50F1000041EBC9
:101E4000045170BD06F0004646EA010140EA020076
:101E500081EA0301B4EB5C04C2BFD4EB0C0541EA98
:101E6000045170BD41F480114FF0000E013C00F3AD
:101E7000AB8014F1360FDEBF002001F0004170BDD1
:101E8000C4F10004203C35DA0C341BDC04F11404EA
:101E9000C4F1200500FA05F320FA04F001FA05F276
:101EA00040EA020001F0004221F0004110EBD37043
:101EB00021FA04F642EB06015EEA430E08BF20EA6F
:101EC000D37070BDC4F10C04C4F1200500FA04F312
:101ED00020FA05F001FA04F240EA020001F00041A4
:101EE00010EBD37041F100015EEA430E08BF20EA17
:101EF000D37070BDC4F1200500FA05F24EEA020E5F
:101F000020FA04F301FA05F243EA020321FA04F08D
:101F100001F0004121FA04F220EA020000EBD37044
:101F20005EEA430E08BF20EAD37070BD94F0000F44
:101F30000FD101F00046400041EB010111F4801F78
:101F400008BF013CF7D041EA060195F0000F18BF29
:101F5000704703F00046520043EB030313F4801F65
:101F600008BF013DF7D043EA0603704794EA0C0F1F
:101F70000CEA135518BF95EA0C0F0CD050EA410635
:101F800018BF52EA4306D1D181EA030101F00041B2
:101F90004FF0000070BD50EA410606BF10461946DA
:101FA00052EA430619D094EA0C0F02D150EA0136E6
:101FB00013D195EA0C0F05D152EA03361CBF104627
:101FC00019460AD181EA030101F0004141F0FE41C6
:101FD00041F470014FF0000070BD41F0FE4141F44A
:101FE000780170BD70B54FF0FF0C4CF4E06C1CEA4A
:101FF00011541DBF1CEA135594EA0C0F95EA0C0FFF
:1020000000F0A7F8A4EB050481EA030E52EA0335B9
:102010004FEA013100F088804FEA03334FF08055DA
:1020200045EA131343EA12634FEA022245EA111507
:1020300045EA10654FEA00260EF000419D4208BFB8
:10204000964244F1FD0404F5407402D25B084FEA65
:102050003202B61A65EB03055B084FEA32024FF411
:1020600080104FF4002CB6EB020E75EB030E22BF6E
:10207000B61A754640EA0C005B084FEA3202B6EB2E
:10208000020E75EB030E22BFB61A754640EA5C00DD
:102090005B084FEA3202B6EB020E75EB030E22BF6D
:1020A000B61A754640EA9C005B084FEA3202B6EB6E
:1020B000020E75EB030E22BFB61A754640EADC002D
:1020C00055EA060E18D04FEA051545EA16754FEA8F
:1020D00006164FEAC30343EA52734FEAC2025FEAAD
:1020E0001C1CC0D111F4801F0BD141EA00014FF03C
:1020F00000004FF0004CB6E711F4801F04BF01430D
:102100000020B4F1FD0C88BFBCF5E06F3FF6AFAE28
:10211000B5EB030C04BFB6EB020C5FEA500C50F1B8
:10212000000041EB045170BD0EF0004E4EEA11313B
:1021300014EB5C04C2BFD4EB0C0541EA045170BD42
:1021400041F480114FF0000E013C90E645EA060E86
:102150008DE60CEA135594EA0C0F08BF95EA0C0FB4
:102160003FF43BAF94EA0C0F0AD150EA01347FF4FC
:1021700034AF95EA0C0F7FF425AF104619462CE7D3
:1021800095EA0C0F06D152EA03353FF4FDAE104636
:10219000194622E750EA410618BF52EA43067FF487
:1021A000C5AE50EA41047FF40DAF52EA43057FF417
:1021B000EBAE12E74FF0FF3C06E000BF4FF0010C22
:1021C00002E000BF4FF0010C4DF804CD4FEA410C86
:1021D0007FEA6C5C4FEA430C18BF7FEA6C5C1BD053
:1021E00001B050EA410C0CBF52EA430C91EA030FD4
:1021F00002BF90EA020F0020704710F1000F91EA31
:10220000030F58BF994208BF90422CBFD8176FEAFE
:10221000E37040F0010070474FEA410C7FEA6C5CCC
:1022200002D150EA013C07D14FEA430C7FEA6C5CD3
:10223000D6D152EA033CD3D05DF8040B704700BFFF
:102240008446104662468C461946634600E000BF4D
:1022500001B5FFF7B7FF002848BF10F1000F01BD1F
:102260004DF808EDFFF7F4FF0CBF012000205DF8EA
:1022700008FB00BF4DF808EDFFF7EAFF34BF01206F
:1022800000205DF808FB00BF4DF808EDFFF7E0FF08
:1022900094BF012000205DF808FB00BF4DF808ED59
:1022A000FFF7CEFF94BF012000205DF808FB00BFC0
:1022B0004DF808EDFFF7C4FF34BF012000205DF8A2
:1022C00008FB00BF4A0011D212F5001211D20DD541
:1022D0006FF47873B3EB62520ED44FEAC12343F02C
:1022E000004343EA505323FA02F070474FF00000D6
:1022F000704750EA013002D14FF0FF3070474FF085
:1023000000007047014B1868704700BF7804002038
:1023100080C094D43132333435363738392A3023BB
:1023200053414C564520504600464F4747494100CF
:1023300050494E3A00414C4C41524D4500494E5394
:10234000455249544F00494E494249544F00455265
:102350005241544F004556454E544F00504F525431
:1023600041203100504F5254412032005354414ECD
:102370005A412031005354414E5A412032005354A7
:10238000414E5A412033005354414E5A41203400AB
:0C2390006C6F67000000000043000000BC
:10239C000000010002000400060008000A000C0006
:1023AC00100020004000800000010000000001022D
:1023BC000304010203040607080900007C04002042
:1023CC0000000000000000000000000001020304F7
:1023DC000607080900A24A040100000000000000E2
:1023EC00000000003C030020A40300200C0400208B
:1023FC0000000000000000000000000000000000D1
:10240C0000000000000000000000000000000000C0
:10241C0000000000982300080000000000000000ED
:10242C0000000000000000000000000000000000A0
:10243C000000000000000000000000000000000090
:10244C000000000000000000000000000000000080
:10245C000000000000000000000000000000000070
:10246C000000000000000000000000000000000060
:10247C000000000000000000000000000000000050
:10248C00000000000000000001000000000000003F
:10249C000E33CDAB34126DE6ECDE05000B00000004
:1024AC000000000000000000000000000000000020
:1024BC000000000000000000000000000000000010
:1024CC000000000000000000000000000000000000
:1024DC0000000000000000000000000000000000F0
:0C280C0000000000000000005000002050
:040000050800018965
:00000001FF
