:020000040800F2
:1000000000A000204D030008550300085D03000810
:100010008103000889030008AD0300080000000008
:10002000000000000000000000000000D1030008F4
:10003000D903000800000000E1030008792C000843
:10004000010400080104000801040008010400087C
:10005000010400080104000801040008010400086C
:10006000010400080104000801040008010400085C
:10007000010400080104000801040008010400084C
:10008000010400080104000801040008010400083C
:10009000010400080104000801040008010400082C
:1000A000010400080104000801040008010400081C
:1000B000010400080104000801040008010400080C
:1000C00001040008010400080104000801040008FC
:1000D00001040008010400080104000801040008EC
:1000E00001040008010400080104000801040008DC
:1000F00001040008010400080104000801040008CC
:1001000000000000000000000000000001040008E2
:1001100001040008010400080104000801040008AB
:10012000010400080104000801040008010400089B
:1001300001040008010400080000000000000000A5
:100140000104000801040008010400080000000088
:10015000000000000000000000000000000000009F
:100160000000000000000000010400080104000875
:100170000104000800000000000000000000000072
:10018000000000000104000880B596B000AF01F047
:10019000ADFE5D4B5D4A1A605D4B5C4A1A605D4B7B
:1001A0007B6523E07B6D1A1D7A651B68FB647B6DA4
:1001B0001A1D7A651B68BB647B6D1A1D7A651B6806
:1001C0007B64FB6C7B63BB6C3B637B6CFB623B6B5C
:1001D000BB6207E0BB6A1A1DBA627A6B111D7963B4
:1001E00012681A60FA6ABB6A9A42F3D87B6D4A4A6F
:1001F0009342D7D3444B1B68484A934204D1444BA3
:100200001B68474A934200D0FEE7464B3F4A1A60BC
:10021000454B3E4A1A60454B3B6519E03B6D1A1D44
:100220003A651B683B643B6D1A1D3A651B68FB63AE
:100230003B6C7B62FB6B3B627B6AFB6104E0FB69AE
:100240001A1DFA6100221A603A6AFB699A42F6D8CE
:100250003B6D374A9342E1D3324B1B68002B03D1ED
:10026000314B1B68002B00D0FEE701F045FE07F183
:1002700008023B1D1046194601F018FE2D4A2E4B70
:10028000D31A9B10BB6100237B6107E02A4A7B697C
:1002900052F8233098477B6901337B61BA697B69E7
:1002A0009A42F3DC254A264BD31A9B10BB610023EC
:1002B0007B6107E0224A7B6952F8233098477B69CB
:1002C00001337B61BA697B699A42F3DCBA687B6867
:1002D0001046194602F0D6FCB8631A4A1A4BD31AD4
:1002E0009B103B613B69FB6008E0FB68013B164AE1
:1002F00052F823309847FB68013BFB60FB68002BFA
:10030000F3DCB86B01F0C2FD00000020BABADECA0F
:100310007C040020080400082004000878563412E9
:1003200032547698800400208C04002020040008B9
:1003300030040008300400083004000830040008CD
:1003400030040008300400083004000880B500AF15
:10035000FFF71AFF80B400AF00BEFEE71EF0040FE7
:100360000CBFEFF30880EFF309807146214A104774
:1003700080B483B000AF7860396000BEFEE700BF94
:1003800080B400AF00BEFEE71EF0040F0CBFEFF319
:100390000880EFF309807146174A104780B483B094
:1003A00000AF7860396000BEFEE700BF1EF0040FAA
:1003B0000CBFEFF30880EFF3098071460F4A104736
:1003C00080B483B000AF7860396000BEFEE700BF44
:1003D00080B400AF00BEFEE780B400AF00BEFEE711
:1003E00080B400AF00BEFEE780B400AFBD465DF84C
:1003F000047B7047710300089D030008C1030008D7
:0804000080B400AF00BEFEE76E
:10040800304100080000002080040020304100082E
:10041800000000100000001080040020900400205C
:080428000000001000000010AC
:1004300080B586B000AF7860396000237B6100230F
:100440003B610023FB607B68B3F1904F17D07B6862
:10045000734A934213D07B68724A93420FD07B68F1
:10046000714A93420BD07B68704A934207D07B68F5
:100470006F4A934203D06F48B92101F02BFD3B68CE
:100480001B68002B03D16B48BA2101F023FD3B68A8
:100490001B79002B0FD03B681B79012B0BD03B68DD
:1004A0001B79022B07D03B681B79032B03D06148D3
:1004B000BB2101F00FFD3B68DB79002B0BD03B68C3
:1004C000DB79012B07D03B68DB79022B03D059483D
:1004D000BC2101F0FFFC00237B6199E07B690122D4
:1004E00002FA03F33B613B681A683B691340FB6007
:1004F000FA683B699A4240F088803B681B79012B7F
:1005000003D03B681B79022B50D13B685B79012BF0
:100510000BD03B685B79022B07D03B685B79032BE0
:1005200003D04448CC2101F0D5FC7B689A687B69F4
:100530005B00194603238B40DB431A407B689A60BB
:100540007B689A683B685B7919467B695B0001FAB6
:1005500003F31A437B689A603B689B79002B07D0B2
:100560003B689B79012B03D03248D32101F0B2FCC8
:100570007B689B889AB27B699BB2194601238B40AA
:100580009BB2DB439BB213409AB27B689A807B6834
:100590009B889AB23B689B7919467B699BB201FAAA
:1005A00003F39BB213439AB27B689A807B681A6804
:1005B0007B695B00194603238B40DB431A407B6851
:1005C0001A607B681A683B681B7919467B695B0077
:1005D00001FA03F31A437B681A607B68DA687B6967
:1005E0009BB25B00032101FA03F3DB431A407B68F3
:1005F000DA607B68DA683B68DB7919467B695B0007
:1006000001FA03F31A437B68DA607B6901337B618B
:100610007B690F2B7FF662AF1837BD4680BD00BFE8
:100620000004004800080048000C00480010004882
:1006300000140048503F000880B582B000AF7860D9
:100640007B68B3F1904F18D07B680F4A934214D067
:100650007B680E4A934210D07B680D4A93420CD0BF
:100660007B680C4A934208D07B680B4A934204D0C3
:100670000A484FF4A77101F02DFC7B681B8A9BB2DE
:1006800018460837BD4680BD0004004800080048F1
:10069000000C00480010004800140048503F0008BB
:1006A00080B582B000AF78600B467B807B68B3F189
:1006B000904F18D07B68134A934214D07B68124A3B
:1006C000934210D07B68114A93420CD07B68104A49
:1006D000934208D07B680F4A934204D00E484FF4EF
:1006E000C47101F0F7FB7B88002B04D10A4840F26B
:1006F000891101F0EFFB7A887B689A610837BD4663
:1007000080BD00BF0004004800080048000C0048FD
:100710000010004800140048503F000880B582B027
:1007200000AF78600B467B807B68B3F1904F18D0A8
:100730007B68134A934214D07B68124A934210D0CC
:100740007B68114A93420CD07B68104A934208D0D0
:100750007B680F4A934204D00E484FF4CD7101F0EC
:10076000B9FB7B88002B04D10A4840F29B1101F0B1
:10077000B1FB7B687A881A850837BD4680BD00BF0B
:100780000004004800080048000C00480010004821
:1007900000140048503F000880B584B000AF786076
:1007A0000B467B8013467B700023FB600023BB60FD
:1007B0007B68B3F1904F18D07B685A4A934214D0AB
:1007C0007B68594A934210D07B68584A93420CD0B8
:1007D0007B68574A934208D07B68564A934204D0BC
:1007E000554840F2032101F075FB7B88002B31D086
:1007F0007B88012B2ED07B88022B2BD07B88032B70
:1008000028D07B88042B25D07B88052B22D07B88A1
:10081000062B1FD07B88072B1CD07B88082B19D078
:100820007B88092B16D07B880A2B13D07B880B2B57
:1008300010D07B880C2B0DD07B880D2B0AD07B88A9
:100840000E2B07D07B880F2B04D03B484FF401714F
:1008500001F040FB7B78002B2BD07B78012B28D03C
:100860007B78022B25D07B78032B22D07B78042B3E
:100870001FD07B78052B1CD07B78062B19D07B787A
:10088000072B16D07B78082B13D07B78092B10D040
:100890007B780A2B0DD07B780B2B0AD07B780E2B24
:1008A00007D07B780F2B04D0234840F2052101F0BC
:1008B00011FB7B787A8802F0070292009340FB607C
:1008C0007B88DB089BB218467B88DB089BB21A4604
:1008D0007B68083253F822207B8803F007039B00D3
:1008E00019460F238B40DB4302EA03017B6800F1CA
:1008F000080243F822107B88DB089BB21A467B680B
:10090000083253F82220FB681343BB607B88DB0866
:100910009BB21A467B680832B96843F82210103738
:10092000BD4680BD0004004800080048000C004897
:100930000010004800140048503F000880B48BB0FD
:1009400000AF786000233B620023FB610023BB61A2
:1009500000237B6100233B6100237B620023FB605B
:100960000023BB60924B5B6803F00C033B623B6A65
:10097000042B07D0082B09D0002B30D17B688D4A7F
:100980001A6030E07B688B4A1A602CE0884B5B6809
:1009900003F47013FB61864B5B6803F48033BB6127
:1009A000FB699B0C0233FB61BB69002B05D1FB6922
:1009B000814A02FB03F37B620DE07D4BDB6A03F0AF
:1009C0000F0301337B617B4A7B69B2FBF3F3FA6966
:1009D00002FB03F37B627B687A6A1A6003E07B6840
:1009E000744A1A6000BF724B5B6803F0F0033B620D
:1009F0003B6A1B093B62714A3B6A13441B78DBB2BA
:100A0000BB607B681A68BB68DA407B685A60684BD9
:100A10005B6803F4E0633B623B6A1B0A3B62674A24
:100A20003B6A13441B78DBB23B617B685A683B69C5
:100A3000DA407B689A605E4B5B6803F460533B620C
:100A40003B6ADB0A3B625D4A3B6A13441B78DBB2BC
:100A5000FB607B685A68FB68DA407B68DA60544B5D
:100A6000DB6A03F4F8733B623B6A1B093B62544A3E
:100A70003B6A32F813309BB23B613B6903F01003D1
:100A8000002B06D07A6A3B69B2FBF3F27B681A61ED
:100A900003E07B681A687B681A61454BDB6A03F4E4
:100AA00078533B623B6A5B0A3B62454A3B6A32F8D9
:100AB00013309BB23B613B6903F01003002B06D05F
:100AC0007A6A3B69B2FBF3F27B685A6103E07B68A8
:100AD0001A687B685A61364B1B6B03F01003002BBE
:100AE00003D17B68334A9A6103E07B681A687B68AC
:100AF0009A612F4B1B6B03F02003002B03D17B6803
:100B00002C4ADA6103E07B681A687B68DA61284B5B
:100B10001B6B03F48073002B0DD07B681A687B6A13
:100B20009A4208D1FA68BB689A4204D17B6A5A009B
:100B30007B681A6203E07B68DA687B681A621C4B88
:100B40001B6B03F40073002B0DD07B681A687B6A63
:100B50009A4208D1FA68BB689A4204D17B6A5A006B
:100B60007B685A6203E07B68DA687B685A62104BE4
:100B70001B6B03F00303002B04D17B68DA687B68EE
:100B80009A6228E00A4B1B6B03F00303012B04D18C
:100B90007B681A687B689A621DE0054B1B6B03F04B
:100BA0000303022B0ED17B684FF400429A6212E0DD
:100BB0000010024000127A0000093D0004000020ED
:100BC00014000020604B1B6B03F00303032B02D1C6
:100BD0007B685E4A9A625C4B1B6B03F44033002BCC
:100BE00004D17B689A687B68DA6221E0564B1B6B04
:100BF00003F44033B3F5803F04D17B681A687B6807
:100C0000DA6215E0504B1B6B03F44033B3F5003F41
:100C100004D17B684FF40042DA6209E04A4B1B6B57
:100C200003F44033B3F5403F02D17B68474ADA62B0
:100C3000454B1B6B03F44023002B04D17B689A685F
:100C40007B681A6321E0404B1B6B03F44023B3F530
:100C5000802F04D17B681A687B681A6315E03A4BD1
:100C60001B6B03F44023B3F5002F04D17B684FF4D2
:100C700000421A6309E0344B1B6B03F44023B3F5C5
:100C8000402F02D17B68314A1A632F4B1B6B03F450
:100C90004013002B04D17B689A687B685A6321E07B
:100CA000294B1B6B03F44013B3F5801F04D17B6801
:100CB0001A687B685A6315E0234B1B6B03F44013DF
:100CC000B3F5001F04D17B684FF400425A6309E07A
:100CD0001D4B1B6B03F44013B3F5401F02D17B681F
:100CE0001A4A5A63184B1B6B03F44003002B04D1C0
:100CF0007B689A687B689A6321E0134B1B6B03F453
:100D00004003B3F5800F04D17B681A687B689A634F
:100D100015E00D4B1B6B03F44003B3F5000F04D13A
:100D20007B684FF400429A6309E0074B1B6B03F4A6
:100D30004003B3F5400F02D17B68044A9A632C3715
:100D4000BD465DF8047B70470010024000127A0037
:100D500080B582B000AF78600B46FB707A68154BA7
:100D60001340002B02D17B68002B04D1124840F2C3
:100D70005C5101F0AFF8FB78002B07D0FB78012B1A
:100D800004D00D4840F25D5101F0A4F8FB78002B2F
:100D900006D00A49094B5A697B6813434B6106E048
:100DA0000649064B5A697B68DB4313404B610837A1
:100DB000BD4680BDA8FF81CE843F000800100240E0
:100DC00080B582B000AF78600B46FB707B6823F47F
:100DD000EF2323F00103002B02D17B68002B04D109
:100DE000114840F27F5101F075F8FB78002B07D0D5
:100DF000FB78012B04D00C484FF4B06101F06AF885
:100E0000FB78002B06D00949084B9A697B6813438D
:100E10008B6106E00549054B9A697B68DB4313400B
:100E20008B610837BD4680BD843F0008001002403A
:100E300080B584B000AF786039600023FB817B68A7
:100E4000594A934228D07B68B3F1804F24D07B6805
:100E5000564A934220D07B68554A93421CD07B6807
:100E6000544A934218D07B68534A934214D07B680B
:100E7000524A934210D07B68514A93420CD07B680F
:100E8000504A934208D07B684F4A934204D04F485F
:100E90004FF4887101F01EF83B685B88002B14D07A
:100EA0003B685B88102B10D03B685B88202B0CD0F4
:100EB0003B685B88402B08D03B685B88602B04D084
:100EC000424840F2111101F005F83B681B89002BE4
:100ED0000ED03B681B89B3F5807F09D03B681B8926
:100EE000B3F5007F04D039484FF4897100F0F2FF68
:100EF0007B681B88FB817B682B4A93420FD07B6801
:100F00002E4A93420BD07B68B3F1804F07D07B68A9
:100F1000264A934203D07B68254A934208D1FB8935
:100F200023F07003FB813B685A88FB891343FB81E4
:100F30007B68204A93420CD07B681F4A934208D0BA
:100F4000FB8923F44073FB813B681A89FB891343B7
:100F5000FB817B68FA891A803B685A687B68DA6291
:100F60003B681A887B681A857B680F4A93420FD0CA
:100F70007B68124A93420BD07B68114A934207D098
:100F80007B68104A934203D07B680F4A934204D196
:100F90003B689B7A9AB27B681A867B6801225A6109
:100FA0001037BD4680BD00BF002C0140000400404A
:100FB00000080040001000400014004000340140D0
:100FC000004001400044014000480140B43F000897
:100FD00080B582B000AF78600B46FB707B68274A13
:100FE000934228D07B68B3F1804F24D07B68244A99
:100FF000934220D07B68234A93421CD07B68224ACC
:10100000934218D07B68214A934214D07B68204ACF
:10101000934210D07B681F4A93420CD07B681E4AD3
:10102000934208D07B681D4A934204D01C4840F28A
:10103000592100F04FFFFB78002B07D0FB78012BE4
:1010400004D0174840F25A2100F044FFFB78002BEF
:1010500008D07B681B889BB243F001039AB27B687F
:101060001A8007E07B681B889BB223F001039AB2C9
:101070007B681A800837BD4680BD00BF002C014048
:101080000004004000080040001000400014004030
:10109000003401400040014000440140004801404C
:1010A000B43F000880B586B000AF78603960002397
:1010B000FB6000237B6100233B617B68944A934281
:1010C00020D07B68B3F1804F1CD07B68914A93425B
:1010D00018D07B68904A934214D07B688F4A934221
:1010E00010D07B688E4A93420CD07B688D4A934225
:1010F00008D07B688C4A934204D08C4840F2A921E6
:1011000000F0E8FE3B681B68002B36D03B681B688C
:10111000102B32D03B681B68202B2ED03B681B68FD
:10112000302B2AD03B681B68602B26D03B681B689D
:10113000702B22D03B681B68B3F5803F1DD03B6805
:101140001B687B4A934218D03B681B68794A9342DC
:1011500013D03B681B68784A93420ED03B681B68EB
:10116000764A934209D03B681B68754A934204D083
:101170006E4840F2AA2100F0ADFE3B689B88002B30
:1011800008D03B689B88012B04D0684840F2AB2113
:1011900000F0A0FE3B689B89002B08D03B689B8930
:1011A000022B04D061484FF42B7100F093FE7B6852
:1011B0001B6A23F001027B681A627B681B6A7B61F1
:1011C0007B685B683B617B689B69FB60FB6823F421
:1011D000803323F07003FB60FB6823F00303FB60A4
:1011E0003B681B68FA681343FB607B6923F00203CA
:1011F0007B613B689B891A467B6913437B613B6833
:101200009B881A467B6913437B617B68404A934203
:101210000FD07B68414A93420BD07B68404A93428F
:1012200007D07B683F4A934203D07B683E4A934293
:101230005DD13B68DB88002B08D03B68DB88042B42
:1012400004D03A4840F2C92100F044FE3B68DB89F3
:10125000002B08D03B68DB89082B04D0334840F2D0
:10126000CA2100F037FE3B685B8AB3F5007F08D0E7
:101270003B685B8A002B04D02C4840F2CB2100F065
:1012800029FE3B681B8AB3F5807F08D03B681B8A28
:10129000002B04D025484FF4337100F01BFE7B690E
:1012A00023F008037B613B68DB891A467B691343A3
:1012B0007B617B6923F004037B613B68DB881A4612
:1012C0007B6913437B613B6923F480733B613B691A
:1012D00023F400733B613B681B8A1A463B69134346
:1012E0003B613B685B8A1A463B6913433B617B6801
:1012F0003A695A607B68FA689A613B689A687B68C9
:101300005A637B687A691A621837BD4680BD00BF90
:10131000002C01400004004000080040003401405F
:10132000004001400044014000480140B43F000833
:1013300010000100400001005000010060000100A9
:101340007000010080B586B000AF7860396000237E
:10135000FB6000237B6100233B617B688A4A9342E8
:1013600018D07B68B3F1804F14D07B68874A9342D2
:1013700010D07B68864A93420CD07B68854A9342A2
:1013800008D07B68844A934204D0844840F2F92113
:1013900000F0A0FD3B681B68002B36D03B681B6843
:1013A000102B32D03B681B68202B2ED03B681B686B
:1013B000302B2AD03B681B68602B26D03B681B680B
:1013C000702B22D03B681B68B3F5803F1DD03B6873
:1013D0001B68734A934218D03B681B68714A93425A
:1013E00013D03B681B68704A93420ED03B681B6861
:1013F0006E4A934209D03B681B686D4A934204D001
:10140000664840F2FA2100F065FD3B689B88002B9E
:1014100008D03B689B88012B04D0604840F2FB2138
:1014200000F058FD3B689B89002B08D03B689B89E6
:10143000022B04D059484FF43F7100F04BFD7B68FC
:101440001B6A23F010027B681A627B681B6A7B614F
:101450007B685B683B617B689B69FB60FB6823F092
:10146000807323F4E043FB60FB6823F44073FB606C
:101470003B681B681B02FA681343FB607B6923F01F
:1014800020037B613B689B891B017A6913437B6165
:101490003B689B881B017A6913437B617B683A4AEE
:1014A000934203D07B683B4A93425DD13B68DB8823
:1014B000002B08D03B68DB88042B04D0374840F26F
:1014C0001A3100F007FD3B68DB89002B08D03B6830
:1014D000DB89082B04D0314840F21B3100F0FAFCC4
:1014E0003B685B8AB3F5007F08D03B685B8A002BC2
:1014F00004D02A484FF4477100F0ECFC3B681B8A8B
:10150000B3F5807F08D03B681B8A002B04D02348AA
:1015100040F21D3100F0DEFC7B6923F080037B612B
:101520003B68DB891B017A6913437B617B6923F08C
:1015300040037B613B68DB881B017A6913437B6155
:101540003B6923F480633B613B6923F400633B61A7
:101550003B681B8A9B003A6913433B613B685B8A8B
:101560009B003A6913433B617B683A695A607B6828
:10157000FA689A613B689A687B689A637B687A69C3
:101580001A621837BD4680BD002C0140000400409F
:10159000000800400034014000400140B43F000812
:1015A0001000010040000100500001006000010037
:1015B0007000010080B586B000AF7860396000230C
:1015C000FB6000237B6100233B617B68874A934279
:1015D00014D07B68B3F1804F10D07B68844A93426B
:1015E0000CD07B68834A934208D07B68824A93423E
:1015F00004D0824840F24A3100F06CFC3B681B6822
:10160000002B36D03B681B68102B32D03B681B6820
:10161000202B2ED03B681B68302B2AD03B681B68E0
:10162000602B26D03B681B68702B22D03B681B6860
:10163000B3F5803F1DD03B681B68714A934218D0B8
:101640003B681B686F4A934213D03B681B686E4A25
:1016500093420ED03B681B686C4A934209D03B68AA
:101660001B686B4A934204D0644840F24B3100F04F
:1016700031FC3B689B88002B08D03B689B88012B82
:1016800004D05E484FF4537100F024FC3B689B8902
:10169000002B08D03B689B89022B04D0574840F2AE
:1016A0004D3100F017FC7B681B6A23F480727B6865
:1016B0001A627B681B6A7B617B685B683B617B6845
:1016C000DB69FB60FB6823F07003FB60FB6823F0C1
:1016D0000303FB603B681B68FA681343FB607B698C
:1016E00023F400737B613B689B891B027A69134377
:1016F0007B613B689B881B027A6913437B617B6833
:101700003A4A934203D07B683B4A93425DD13B689F
:10171000DB88002B08D03B68DB88042B04D03748DB
:1017200040F26A3100F0D6FB3B68DB89002B08D021
:101730003B68DB89082B04D0304840F26B3100F065
:10174000C9FB3B685B8AB3F5007F08D03B685B8AC6
:10175000002B04D029484FF45B7100F0BBFB3B68C1
:101760001B8AB3F5807F08D03B681B8A002B04D00E
:10177000224840F26D3100F0ADFB7B6923F4006339
:101780007B613B68DB891B027A6913437B617B6960
:1017900023F480637B613B68DB881B027A69134317
:1017A0007B613B6923F480533B613B6923F4005325
:1017B0003B613B681B8A1B013A6913433B613B68F1
:1017C0005B8A1B013A6913433B617B683A695A6043
:1017D0007B68FA68DA613B689A687B68DA637B68E1
:1017E0007A691A621837BD4680BD00BF002C0140DF
:1017F000000400400008004000340140B43F0008ED
:1018000010000100400001005000010060000100D4
:101810007000010080B586B000AF786039600023A9
:101820003B610023FB6000237B617B68644A934239
:1018300014D07B68B3F1804F10D07B68614A93422B
:101840000CD07B68604A934208D07B685F4A934221
:1018500004D05F4840F29A3100F03CFB3B681B68C3
:10186000002B36D03B681B68102B32D03B681B68BE
:10187000202B2ED03B681B68302B2AD03B681B687E
:10188000602B26D03B681B68702B22D03B681B68FE
:10189000B3F5803F1DD03B681B684E4A934218D079
:1018A0003B681B684C4A934213D03B681B684B4A09
:1018B00093420ED03B681B68494A934209D03B686B
:1018C0001B68484A934204D0414840F29B3100F0E3
:1018D00001FB3B689B88002B08D03B689B88012B51
:1018E00004D03B484FF4677100F0F4FA3B689B89E1
:1018F000002B08D03B689B89022B04D0344840F26F
:101900009D3100F0E7FA7B681B6A23F480527B6804
:101910001A627B681B6AFB607B685B687B617B6823
:10192000DB693B613B6923F4E0433B613B6923F4A2
:1019300040733B613B681B681B023A6913433B6180
:10194000FB6823F40053FB603B689B891B03FA6828
:101950001343FB603B689B881B03FA681343FB60DF
:101960007B68174A934203D07B68184A934217D189
:101970003B681B8AB3F5807F08D03B681B8A002B2D
:1019800004D0134840F2BB3100F0A4FA7B6923F481
:1019900080437B613B681B8A9B017A6913437B61AF
:1019A0007B687A695A607B683A69DA613B689A6851
:1019B0007B681A647B68FA681A621837BD4680BD76
:1019C000002C0140000400400008004000340140A9
:1019D000B43F000810000100400001005000010069
:1019E000600001007000010080B582B000AF786037
:1019F00039607B68144A934220D07B68B3F1804FF2
:101A00001CD07B68114A934218D07B68104A9342DD
:101A100014D07B680F4A934210D07B680E4A9342E1
:101A20000CD07B680D4A934208D07B680C4A9342E5
:101A300004D00C4840F2095100F04CFA7B683A6837
:101A40005A630837BD4680BD002C014000040040A9
:101A500000080040003401400040014000440140C3
:101A600000480140B43F000880B582B000AF786004
:101A700039607B68104A934218D07B68B3F1804F7D
:101A800014D07B680D4A934210D07B680C4A934275
:101A90000CD07B680B4A934208D07B680A4A934279
:101AA00004D00A4840F2195100F014FA7B683A68F1
:101AB0009A630837BD4680BD002C014000040040F9
:101AC000000800400034014000400140B43F0008DD
:101AD00080B582B000AF786039607B680E4A93426F
:101AE00014D07B68B3F1804F10D07B680B4A9342CF
:101AF0000CD07B680A4A934208D07B68094A93421B
:101B000004D009484FF4A56100F0E4F97B683A6815
:101B1000DA630837BD4680BD002C01400004004058
:101B20000008004000340140B43F000880B582B096
:101B300000AF786039607B680E4A934214D07B68AE
:101B4000B3F1804F10D07B680B4A93420CD07B6876
:101B50000A4A934208D07B68094A934204D0094854
:101B600040F2375100F0B6F97B683A681A640837DA
:101B7000BD4680BD002C014000040040000800402C
:101B800000340140B43F000880B584B000AF7860F5
:101B90000B467B800023FB607B68204A934220D069
:101BA0007B68B3F1804F1CD07B681D4A934218D0EC
:101BB0007B681C4A934214D07B681B4A934210D026
:101BC0007B681A4A93420CD07B68194A934208D02A
:101BD0007B68184A934204D0174840F2136100F022
:101BE00079F97B88082B07D07B88002B04D012481A
:101BF00040F2146100F06EF97B689B69FB60FB6842
:101C000023F00803FB607B88FA681343FB607B6862
:101C1000FA689A611037BD4680BD00BF002C0140B4
:101C20000004004000080040003401400040014032
:101C30000044014000480140B43F000880B584B032
:101C400000AF78600B467B800023FB607B681C4AFA
:101C5000934218D07B68B3F1804F14D07B68194A47
:101C6000934210D07B68184A93420CD07B68174A85
:101C7000934208D07B68164A934204D0154840F23C
:101C8000316100F027F97B88082B07D07B88002B77
:101C900004D0104840F2326100F01CF97B689B6967
:101CA000FB60FB6823F40063FB607B881B02FA681F
:101CB0001343FB607B68FA689A611037BD4680BDAC
:101CC000002C0140000400400008004000340140A6
:101CD00000400140B43F000880B584B000AF786098
:101CE0000B467B800023FB607B681A4A934214D02A
:101CF0007B68B3F1804F10D07B68174A93420CD0B9
:101D00007B68164A934208D07B68154A934204D0F8
:101D1000144840F24E6100F0DDF87B88082B07D0B4
:101D20007B88002B04D00F4840F24F6100F0D2F8BE
:101D30007B68DB69FB60FB6823F00803FB607B8842
:101D4000FA681343FB607B68FA68DA611037BD46B6
:101D500080BD00BF002C014000040040000800408E
:101D600000340140B43F000880B584B000AF786013
:101D70000B467B800023FB607B681A4A934214D099
:101D80007B68B3F1804F10D07B68174A93420CD028
:101D90007B68164A934208D07B68154A934204D068
:101DA000144840F26B6100F095F87B88082B07D04F
:101DB0007B88002B04D00F4840F26C6100F08AF859
:101DC0007B68DB69FB60FB6823F40063FB607B8856
:101DD0001B02FA681343FB607B68FA68DA6110370C
:101DE000BD4680BD002C01400004004000080040BA
:101DF00000340140B43F000880B582B000AF786085
:101E00000B46FB707B681B4A934214D07B681A4ACE
:101E1000934210D07B68194A93420CD07B68184AD1
:101E2000934208D07B68174A934204D0164840F684
:101E30002F3100F04FF8FB78002B07D0FB78012BF7
:101E400004D011484FF4336100F044F8FB78002BC4
:101E500006D07B685B6C43F400427B685A6405E003
:101E60007B685B6CC3F30E027B685A640837BD461F
:101E700080BD00BF002C0140003401400040014003
:101E80000044014000480140B43F000880B483B0E2
:101E900000AF7860FEE700BF80B582B000AF024BB4
:101EA0007B600120FFF7F2FFE43F000880B483B0BD
:101EB00000AF786039607B6801221A603B68044A91
:101EC0001A6000BF0C37BD465DF8047B704700BF49
:101ED0003000002080B584B000AF78603960024BDC
:101EE000FB60FFF7D9FF00BF3C40000880B500AFA2
:101EF00000F008F880BD00BF80B500AF00F042F8E8
:101F000080BD00BF80B500AF1A4A1A4B1B6843F072
:101F1000010313601749174B5A68174B13404B6066
:101F2000144A144B1B6823F0847323F4803313602A
:101F3000104A104B1B6823F4802313600D4A0D4B8D
:101F40005B6823F4FE0353600A4A0A4BDB6A23F002
:101F50000F03D3620749074B1A6B084B13400B63FF
:101F6000044B00229A6000F077F8054B4FF00062B6
:101F70009A6080BD001002400CC07FF8CCFC00FFCE
:101F800000ED00E080B485B000AF0023FB600023CB
:101F9000BB6000237B6000233B602A4B5B6803F03F
:101FA0000C03FB60FB68042B07D0082B09D0002B27
:101FB0002FD1254B254A1A602FE0234B234A1A6064
:101FC0002BE0204B5B6803F47013BB601D4B5B6818
:101FD00003F480337B60BB689B0C0233BB607B687F
:101FE000002B06D1BB681A4A02FB03F3164A1360A2
:101FF00013E0144BDB6A03F00F0301333B60134A19
:102000003B68B2FBF3F3BA6802FB03F30E4A1360BA
:1020100003E00D4B0D4A1A6000BF0A4B5B6803F0EA
:10202000F0031B090B4AD35CDBB2FB60064B1A685A
:10203000FB6822FA03F3044A13601437BD465DF8C7
:10204000047B7047001002403800002000127A0024
:1020500000093D003C00002080B483B000AF0023A5
:102060007B6000233B60324A314B1B6843F4803372
:1020700013602F4B1B6803F400333B607B68013314
:102080007B603B68002B03D17B68B3F5A06FF0D178
:10209000274B1B6803F40033002B02D001233B6065
:1020A00001E000233B603B68012B3CD1214B122215
:1020B0001A601F4A1E4B5B6853601D4A1C4B5B68CD
:1020C00053601B4A1A4B5B6843F480635360184AA1
:1020D000174B5B6823F47C135360154A144B5B6801
:1020E00043F4E8135360124A114B1B6843F08073AA
:1020F000136000BF0E4B1B6803F00073002BF9D078
:102100000B4A0B4B5B6823F003035360084A084BF0
:102110005B6843F00203536000BF054B5B6803F04C
:102120000C03082BF9D10C37BD465DF8047B7047D2
:10213000001002400020024080B582B000AF4FF492
:1021400080100121FEF704FE40233B6001233B7118
:102150000023BB7103237B710023FB713B460548C1
:102160001946FEF765F903484021FEF7D7FA08370C
:10217000BD4680BD000C004880B483B000AF03466C
:102180003960FB7197F90730002B0BDA0D49FB79A9
:1021900003F00F03043B3A68D2B21201D2B20B44EF
:1021A0001A7609E0084997F907303A68D2B2120165
:1021B000D2B20B4483F800230C37BD465DF8047B94
:1021C000704700BF00ED00E000E100E080B582B0A4
:1021D00000AF78607B68013BB3F1807F01D30123BE
:1021E0000FE00A4A7B68013B53604FF0FF300F213C
:1021F000FFF7C2FF054B00229A60044B07221A60CA
:10220000002318460837BD4680BD00BF10E000E03F
:1022100080B500AF00F006F800F07CF8142000F064
:102220001DFA80BD80B592B000AF3B1D1846FEF789
:1022300085FBBB68354AA2FB03239B091846FFF7C1
:10224000C5FF0346002B00D0FEE74FF4003001210C
:10225000FEF77EFDFF233B64012387F84430002313
:1022600087F84630032387F84530002387F8473046
:1022700007F140034FF090401946FEF7D9F84FF4AC
:1022800080200121FEF764FD07233B64012387F8CA
:102290004430002387F84630032387F84530002375
:1022A00087F8473007F1400319481946FEF7C0F890
:1022B00017480421FEF732FA15480121FEF72EFADD
:1022C00013480221FEF72AFA102000F0AFFC30205C
:1022D00000F0B4F8052000F0A9FC302000F0AEF8C2
:1022E000012000F0A3FC302000F0A8F8382000F016
:1022F00091F90C2000F08EF9012000F08BF90620F6
:1023000000F088F94837BD4680BD00BFD34D62104C
:102310000004004880B59AB000AF4FF400100121CE
:10232000FEF716FD022387F86030002387F862303D
:10233000032387F86130002387F863304FF400737C
:10234000FB6507F15C033A481946FEF771F8384817
:1023500009210222FEF720FA00237B664FF4006079
:102360000121FEF72DFD07F114031846FEF7E6FAEA
:102370003B6A304AA2FB03239B09013B7B664A234D
:102380007B657B6E9BB2A7F850300023A7F85830CE
:102390000023A7F85230002387F85A3007F1500382
:1023A00025481946FEF744FD60233B600123BB80AE
:1023B0000023BB600023BB814FF480733B82042366
:1023C000FB800823FB814FF400737B823B461A4855
:1023D0001946FEF767FE18480821FFF7D5FB3B4674
:1023E00015481946FEF7AEFF13480821FFF726FCF3
:1023F0003B4611481946FFF7DDF80F480821FFF763
:102400006BFC3B460C481946FFF704FA0A480821C2
:10241000FFF7AAFC002000F021F907480121FFF78F
:10242000EBFC05480121FEF7D3FD6837BD4680BDB2
:1024300000100048D34D6210002C014080B582B0DE
:1024400000AF0346FB71FB7903F01003002B05D0AE
:102450004FF090401021FEF723F904E04FF0904038
:102460001021FEF75BF9FB7903F02003002B05D068
:102470004FF090402021FEF713F904E04FF0904018
:102480002021FEF74BF9FB7903F04003002B05D028
:102490004FF090404021FEF703F904E04FF09040E8
:1024A0004021FEF73BF9FB795BB2002B05DA4FF0D8
:1024B00090408021FEF7F4F804E04FF09040802136
:1024C000FEF72CF906480421FEF7EAF8032000F095
:1024D000ADFB03480421FEF721F90837BD4680BD56
:1024E0000004004880B582B000AF0346FB71FB7961
:1024F00003F00103002B05D04FF090400121FEF7BF
:10250000CFF804E04FF090400121FEF707F9FB7986
:1025100003F00203002B05D04FF090400221FEF79C
:10252000BFF804E04FF090400221FEF7F7F8FB7986
:1025300003F00403002B05D04FF090400421FEF778
:10254000AFF804E04FF090400421FEF7E7F8FB7984
:1025500003F00803002B05D04FF090400821FEF750
:102560009FF804E04FF090400821FEF7D7F8FB7980
:1025700003F01003002B05D04FF090401021FEF720
:102580008FF804E04FF090401021FEF7C7F8FB7978
:1025900003F02003002B05D04FF090402021FEF7E0
:1025A0007FF804E04FF090402021FEF7B7F8FB7968
:1025B00003F04003002B05D04FF090404021FEF780
:1025C0006FF804E04FF090404021FEF7A7F8FB7948
:1025D0005BB2002B05DA4FF090408021FEF760F8E7
:1025E00004E04FF090408021FEF798F8084804215D
:1025F000FEF756F8032000F019FB05480421FEF70A
:102600008DF8022000F012FB0837BD4680BD00BFE8
:102610000004004880B582B000AF0346FB71054856
:102620000121FEF77BF8FB791846FFF75BFF0837BF
:10263000BD4680BD0004004880B582B000AF0346AF
:10264000FB7105480121FEF72BF8FB791846FFF7CF
:1026500049FF0837BD4680BD0004004880B582B000
:1026600000AF0346FB80FB880A481946FFF7FCF9D8
:10267000FB8808481946FFF7B7F9FB880548194653
:10268000FFF726FAFB8803481946FFF74FFA083789
:10269000BD4680BD002C014080B582B000AF03462E
:1026A000FB71FB791846FFF7C7FF0837BD4680BDB1
:1026B00080B584B000AF03460A46FB711346BB7178
:1026C0000023FB73FB790F2B01D90023FB71BB792E
:1026D000012B01D90023BB71BB79032B16D801A2B2
:1026E00052F823F0F5260008FB2600080127000811
:1026F000072700088023FB7308E0C023FB7305E075
:102700009423FB7302E0D423FB7300BFFA79FB7BB5
:102710001344DBB21846FFF77DFF1037BD4680BD7E
:1027200080B584B000AF78600023FB60FB687A68F6
:1027300013441B78DBB21846FFF7AEFFFB6801338A
:10274000FB60012000F072FAFB687A6813441B7882
:10275000002BEBD11037BD4680BD00BF80B500AF68
:102760000120FFF757FF012000F060FA80BD00BF95
:1027700080B58CB000AF78604FF480100121FEF777
:10278000E7FA4FF400200121FEF7E2FA07233B624B
:10279000002387F82430002387F82630032387F8A6
:1027A0002530022387F8273007F120032A481946ED
:1027B000FDF73EFE0F23BB6101233B770023BB7770
:1027C00003237B770023FB7707F11803234819467F
:1027D000FDF72EFE7B6803225A827B680022DA8294
:1027E000786800F0FFF81E4A07F10C031068516882
:1027F000926807C30023FB6220E00023BB6217E05E
:10280000FA6A13465B001A44BB6A134407F13002AC
:10281000134413F8240C7968FA6A13465B001344D6
:10282000BA6A13440B4402461A70BB6A0133BB6296
:10283000BB6A022BE4DDFB6A0133FB62FB6A032BFC
:10284000DBDD06480F21FDF769FF03480721FDF78F
:1028500065FF3037BD4680BD000C004800080048C9
:10286000684000080000000080B586B000AF7860C6
:1028700000237B6163E001227B6902FA03F39BB2D0
:102880003B481946FDF70CFF3A48FDF7D5FE0346D5
:1028900003F007037B827B8A002B44D07B8A184697
:1028A00001F020F802460B461046194600F03EFCA7
:1028B00002460B46104619462BA3D3E9002301F02C
:1028C000B1F902460B461046194601F01BFB0346C0
:1028D0003B8201227B6902FA03F39BB2244819462A
:1028E000FDF71CFF388A79687A6913465B00134448
:1028F00003440B441B78FB737B681B7D97F90F2007
:102900005BB29A4203D17B68DB8A322B08D97B68A1
:10291000FA7B1A757B680022DA827B6814331CE02C
:102920007B680022DA8201227B6902FA03F39BB200
:102930000F481946FDF7F2FE7B6901337B617B6925
:10294000032B98DD7B68DB8A322B05D87B68DB8A1A
:1029500001339AB27B68DA82002318461837BD46E5
:1029600080BD00BFAFF30080EF39FAFE422EE63F94
:1029700000080048000C004880B584B000AF7860C3
:102980007868FFF771FFF860FB681B785BB2232B58
:1029900004D1786800F026F801231EE07B685B8A8A
:1029A000032B01D9002318E0FB68002B01D1002381
:1029B00013E0FB682A2B01D100230EE07B685B8AC1
:1029C0001946FB681A787B680B441A737B685B8A2C
:1029D00001339AB27B685A82012318461037BD46EC
:1029E00080BD00BF80B485B000AF78600023FB607D
:1029F00008E07A68FB68134408335F221A71FB68A9
:102A00000133FB60FB68032BF3DD7B6800225A82F5
:102A10007B6800221A741437BD465DF8047B70474A
:102A200080B582B000AF786000F06CF800F04CF830
:102A3000786800F003F80837BD4680BD80B485B0E3
:102A400000AF78600023FB600023FB6007E07B6839
:102A5000FA68002143F82210FB680133FB60FB6831
:102A60000F2BF4DD1437BD465DF8047B704700BFC3
:102A700080B584B000AF78603960386800F05CF8E9
:102A8000F8607B683A6853F82220FB689A4201D1CB
:102A9000002315E07B683A6853F82230002B09D1F7
:102AA000FB68012B06D17B683A68F96843F822106D
:102AB000012305E07B683A68F96843F82210002397
:102AC00018461037BD4680BD80B582B000AF4FF4C8
:102AD00000200121FEF73CF94FF408433B6000233E
:102AE0003B710123BB7103237B710123FB713B46C7
:102AF00003481946FDF79CFC0837BD4680BD00BF62
:102B00000008004880B582B000AF4FF400200121DA
:102B1000FEF71EF94FF4E8433B6000233B710223AC
:102B2000FB713B4603481946FDF782FC0837BD465A
:102B300080BD00BF0008004880B584B000AF786059
:102B40000B48FDF779FD0346FB6001227B6802FA22
:102B500003F31A46FB681340002B14BF0123002324
:102B6000DBB2BB60BB6818461037BD4680BD00BFF6
:102B70000008004880B483B000AF03463960FB71A1
:102B800097F90730002B0BDA0D49FB7903F00F039F
:102B9000043B3A68D2B21201D2B20B441A7609E071
:102BA000084997F907303A68D2B21201D2B20B4401
:102BB00083F800230C37BD465DF8047B704700BFE7
:102BC00000ED00E000E100E080B582B000AF786089
:102BD0007B68013BB3F1807F01D301230FE00A4AF8
:102BE0007B68013B53604FF0FF300F21FFF7C2FFBE
:102BF000054B00229A60044B07221A6000231846F6
:102C00000837BD4680BD00BF10E000E080B500AFD2
:102C1000044B1B68044AA2FB03239B091846FFF7D9
:102C2000D3FF80BD38000020D34D621080B483B044
:102C300000AF7860064A7B68136000BF044B1B68D6
:102C4000002BFBD10C37BD465DF8047B704700BFFD
:102C50008804002080B400AF064B1B68002B04D012
:102C6000044B1B68013B034A1360BD465DF8047BBF
:102C7000704700BF8804002080B500AFFFF7EAFF6F
:102C800080BD00BF80B5A6B000AF786039608E4BC4
:102C9000C7F88C308D4BC7F8883007F158031846B9
:102CA000FFF766FDFFF7B2FF07F110031846FFF7C5
:102CB000B7FE07F1500207F108031046194600F06D
:102CC00003FAFFF7A5FAFFF737FAFFF747FD0020F1
:102CD0000021FFF7EDFC7E48FFF722FD00200121D7
:102CE000FFF7E6FC7B48FFF71BFD07F1580318468A
:102CF000FFF778FE07F11003C7F88430D7F8840097
:102D00000F21FFF7B5FE0346002B14BF012300235C
:102D1000DBB287F8503007F11003C7F88030D7F8DE
:102D200080000B21FFF7A4FE0346002B14BF0123F4
:102D30000023DBB287F8513007F11003FB67F86F0F
:102D40000D21FFF795FE0346002B14BF012300233E
:102D5000DBB287F8523007F11003BB67B86F0E2162
:102D6000FFF786FE0346002B14BF01230023DBB2CE
:102D700087F8533007F110037B67786F0A21FFF75C
:102D800077FE0346002B14BF01230023DBB287F834
:102D9000543007F110033B67386F0C21FFF768FED2
:102DA0000346002B14BF01230023DBB287F8553004
:102DB00007F158031846FFF7DFFD034687F8563042
:102DC000012387F8973097F85630002B00F0B18038
:102DD0000023C7F89030FFF7C1FC00200021FFF767
:102DE00067FC3D48FFF79CFC00200121FFF760FCD9
:102DF0002DE007F16002D7F8903013441B79DBB265
:102E00001846FFF749FC97F8973007F16001D7F8AB
:102E100090200A44107907F10801D7F890200A445D
:102E2000127841B252B291420CBF01220022D2B2BA
:102E30001340002B03D0012387F8973002E00023D2
:102E400087F89730D7F890300133C7F8903007F102
:102E50006002D7F8903013441B79002B07D007F19C
:102E60000802D7F8903013441B78002BC1D197F893
:102E70009730002B46D097F85730002B14BF012312
:102E80000023DBB283F00103DBB203F00103DBB20A
:102E900087F8573007F158031846FFF7A3FD97F856
:102EA0005730002B1ED0FFF759FC00200021FFF700
:102EB000FFFB0A48FFF734FC00200121FFF7F8FB75
:102EC0000748FFF72DFC1DE074400008884000080B
:102ED0009C400008A8400008B0400008B840000826
:102EE000C0400008FFF73AFC00200021FFF7E0FB9C
:102EF0006A48FFF715FC00200121FFF7D9FB68485D
:102F0000FFF70EFC97F8973083F00103DBB2002B3C
:102F10000FD0B7F86A30042B0BD100200121FFF746
:102F2000C7FB6048FFF7FCFB07F158031846FFF7A3
:102F300059FD97F85030002B17D097F85730002BD9
:102F400013D059484021FDF7ABFBFFF707FC0020E9
:102F50000021FFF7ADFB5548FFF7E2FB0020012100
:102F6000FFF7A6FB5248FFF7DBFB97F85130002B29
:102F700017D097F85730002B13D04B484021FDF75E
:102F80008FFBFFF7EBFB00200021FFF791FB474889
:102F9000FFF7C6FB00200121FFF78AFB4548FFF73A
:102FA000BFFB97F85230002B17D097F85730002B03
:102FB00013D03D484021FDF773FBFFF7CFFB002006
:102FC0000021FFF775FB3948FFF7AAFB002001211C
:102FD000FFF76EFB3848FFF7A3FB97F85330002B41
:102FE00017D097F85730002B13D02F484021FDF70A
:102FF00057FBFFF7B3FB00200021FFF759FB2B48DD
:10300000FFF78EFB00200121FFF752FB2B48FFF753
:1030100087FB97F85430002B17D097F85730002BC8
:1030200013D021484021FDF73BFBFFF797FB002021
:103030000021FFF73DFB1D48FFF772FB0020012137
:10304000FFF736FB1E48FFF76BFB97F85530002B58
:1030500017D097F85730002B13D013484021FDF7B5
:103060001FFBFFF77BFB00200021FFF721FB0F4830
:10307000FFF756FB00200121FFF71AFB1148FFF76D
:103080004FFB97F8573083F00103DBB2002B03D0DE
:1030900005484021FDF742FB2CE600BFB840000880
:1030A000CC400008D4400008000C0048DC40000878
:1030B000E4400008EC400008F4400008004100082B
:1030C0000C4100081841000880B485B000AF78605A
:1030D00039600023FB6007E07A68FB681344002234
:1030E0001A70FB680133FB60FB68062BF4DD7B681C
:1030F0000022DA710023BB600BE0BB683A6813441E
:10310000BA68D2B23132D2B2D2B21A70BB680133CD
:10311000BB60BB68032BF0DD3B68043300221A70F0
:103120001437BD465DF8047B704700BF2DE9F041C0
:10313000DFF8EC808AB006460F4600F075F898F983
:103140000030013304460D460BD03046394600F0BE
:1031500053FA30B1304639460022002300F0C8FE51
:1031600020B1204629460AB0BDE8F08198F8004019
:10317000274B0890CDE90267CDE9046701933046FB
:1031800039468CB9234D4FF0604400220023CDE92D
:10319000064500F085FE002831D1012300936846E2
:1031A00000F056FA88B90CE01B4F002600220023DD
:1031B000CDE9066700F074FE98B90123022C009354
:1031C000EDD100F0BFFE21230360144800F042FA65
:1031D000CDE90601089BABB9DDE906010AB0BDE8FF
:1031E000F08102239C42009304D0684600F030FA3C
:1031F0000028EFD100F0A6FE22230360EAE70223B5
:103200000093F2E700F09EFE089B0360E4E700BF36
:1032100024410008FFFFEFC70000F0FF284100082D
:103220004C000020000000002DE9F04FB1F5801F98
:1032300085B006460F460B465ADA024621F0004496
:10324000224300F0F6800029C0F272810022DE4B9A
:1032500000F0BEFB0B460F46DC498B4206466FF082
:1032600035024ADCC3F3130505F5152404F664742E
:1032700004F4801E8EF07F5181F440111B15A3F2DF
:10328000FF3341EA05079C1830460022D04B3946EF
:1032900004EB1E5400F0E8F9AB1CC3F31303022B3C
:1032A00082468B464FF0000230DC002300F0F8FD30
:1032B000002800F0C780002C00F04381204600F079
:1032C00021FBADA3D3E9002306460F4600F080FBA7
:1032D000ABA3D3E9002304460D463046394600F03F
:1032E00077FB02460B462046294600F0BFF90AE06C
:1032F000B6498B424FF00002B4DD304639463246C3
:103300003B4600F0B3F905B0BDE8F08F4FF08043C5
:1033100000F0ACF902460B465046594600F082FCDC
:1033200006460F462046CDE9006700F0EBFA32462C
:10333000CDE902013B463046394600F049FB0246E2
:103340000B468046894600F043FB8FA3D3E9002358
:1033500006460F4600F03CFB8DA3D3E9002300F0A6
:1033600085F932463B4600F033FB8BA3D3E90023BB
:1033700000F07CF932463B4600F02AFB88A3D3E9F3
:10338000002300F073F942464B4600F021FB86A370
:10339000D3E90023804689463046394600F018FBC1
:1033A00083A3D3E9002300F061F932463B4600F0E5
:1033B0000FFB81A3D3E9002300F058F932463B46C6
:1033C00000F006FB0B4602464946404600F04EF927
:1033D000A5F5C223C5F5D725A3F27A4351351D4380
:1033E000002D06460F4653DD00227A4B50465946C3
:1033F00000F0EEFA52465B4600F0EAFA8046894653
:10340000002C60D132463B4600F030F9DDE9002364
:1034100000F0DEFA02460B464046494600F024F929
:1034200002460B465046594600F01EF905B0BDE86D
:10343000F08F002200230020674900F0F3FB05B065
:10344000BDE8F08F52465B465046594600F0C0FA40
:103450005BA3D3E9002306460F465046594600F0C9
:10346000B7FA02460B4600205A4900F0FDF8024622
:103470000B463046394600F0ABFA06460F46002CA4
:1034800062D15046594632463B4600F0EDF83AE7E5
:10349000002C00F0A380DDE9028937A3D3E90023E3
:1034A0004046494600F094FA32463B4604460D46F3
:1034B0005046594600F0D8F8DDE9002300F088FABC
:1034C00006460F464CE02CA3D3E90023DDE90201B8
:1034D00000F07EFA32463B4604460D4640464946D9
:1034E00000F0C4F8DDE9002300F072FA24A3D3E968
:1034F000002306460F46DDE9020100F069FA0246A4
:103500000B463046394600F0B1F802460B464046BD
:10351000494600F0A9F852465B4600F0A5F802467D
:103520000B462046294600F09FF805B0BDE8F08F15
:1035300002460B4600F098F80022002300F072FBD0
:10354000E1E600200021DEE6204600F0DBF90AA3D8
:10355000D3E900238046894600F03AFA04460D4636
:1035600007A3D3E900234046494600F031FA02465A
:103570000B4630463946CCE70000E0FE422EE63FDF
:10358000763C7935EF39EA3D44523EDF12F1C23FD5
:10359000DE03CB966446C73F599322942449D23F19
:1035A000935555555555E53F9FC678D0099AC33F69
:1035B000AF788E1DC571CC3F04FA97999999D93F80
:1035C000555555555555D53F00005043FFFFEF7FEA
:1035D0000000F03F0000E03F000050C302460B46F1
:1035E0005046594600F040F8DDE9002300F0F0F9BC
:1035F00016E700BFAFF3008010B431F0004408D0EC
:10360000114BA1F580129A4208D804205DF8044BB2
:10361000704718B902205DF8044B704701F1FF4173
:10362000094B01F5E0019942EFD9B4F5801F01D2B1
:103630000320EBE7054B9C4201D00020E6E7B0FAFF
:1036400080F04009E2E700BFFFFFDF7F0000F07F6E
:103650000020704700200149704700BF0000F87F3C
:1036600081F0004102E000BF83F0004330B54FEA33
:1036700041044FEA430594EA050F08BF90EA020FA0
:103680001FBF54EA000C55EA020C7FEA645C7FEA33
:10369000655C00F0E2804FEA5454D4EB5555B8BF56
:1036A0006D420CDD2C4480EA020281EA030382EAC7
:1036B000000083EA010180EA020281EA0303362D59
:1036C00088BF30BD11F0004F4FEA01314FF4801C2C
:1036D0004CEA113102D0404261EB410113F0004F3E
:1036E0004FEA03334CEA133302D0524263EB4303F5
:1036F00094EA050F00F0A780A4F10104D5F1200E93
:103700000DDB02FA0EFC22FA05F2801841F10001ED
:1037100003FA0EF2801843FA05F359410EE0A5F1C1
:1037200020050EF1200E012A03FA0EFC28BF4CF0F2
:10373000020C43FA05F3C01851EBE37101F00045A8
:1037400007D54FF0000EDCF1000C7EEB00006EEBB5
:103750000101B1F5801F1BD3B1F5001F0CD349083F
:103760005FEA30004FEA3C0C04F101044FEA445296
:1037700012F5800F80F09A80BCF1004F08BF5FEA1D
:10378000500C50F1000041EB045141EA050130BDFD
:103790005FEA4C0C404141EB010111F4801FA4F1A0
:1037A0000104E9D191F0000F04BF01460020B1FAF5
:1037B00081F308BF2033A3F10B03B3F120020CDA2D
:1037C0000C3208DD02F1140CC2F10C0201FA0CF00B
:1037D00021FA02F10CE002F11402D8BFC2F1200C70
:1037E00001FA02F120FA0CFCDCBF41EA0C01904026
:1037F000E41AA2BF01EB0451294330BD6FEA04046F
:103800001F3C1CDA0C340EDC04F11404C4F1200259
:1038100020FA04F001FA02F340EA030021FA04F36B
:1038200045EA030130BDC4F10C04C4F1200220FAC2
:1038300002F001FA04F340EA0300294630BD21FA00
:1038400004F0294630BD94F0000F83F4801306BFC6
:1038500081F480110134013D4EE77FEA645C18BFBA
:103860007FEA655C29D094EA050F08BF90EA020F51
:1038700005D054EA000C04BF1946104630BD91EA49
:10388000030F1EBF0021002030BD5FEA545C05D14C
:103890004000494128BF41F0004130BD14F580048B
:1038A0003CBF01F5801130BD01F0004545F0FE41FF
:1038B00041F470014FF0000030BD7FEA645C1ABF34
:1038C000194610467FEA655C1CBF0B46024650EA6B
:1038D000013406BF52EA033591EA030F41F4002197
:1038E00030BD00BF90F0000F04BF0021704730B51D
:1038F0004FF4806404F132044FF000054FF00001F2
:1039000050E700BF90F0000F04BF0021704730B5B2
:103910004FF4806404F1320410F0004548BF404287
:103920004FF000013EE700BF42004FEAE2014FEADC
:1039300031014FEA02701FBF12F07F4393F07F4FB7
:1039400081F06051704792F0000F14BF93F07F4FE9
:10395000704730B54FF4607401F0004521F000412C
:1039600020E700BF50EA010208BF704730B54FF0B2
:1039700000050AE050EA010208BF704730B511F0B7
:10398000004502D5404261EB41014FF4806404F1EF
:1039900032045FEA915C3FF4DCAE4FF003025FEA71
:1039A000DC0C18BF03325FEADC0C18BF033202EBF9
:1039B000DC02C2F1200300FA03FC20FA02F001FA53
:1039C00003FE40EA0E0021FA02F11444C1E600BFF2
:1039D00070B54FF0FF0C4CF4E06C1CEA11541DBFA5
:1039E0001CEA135594EA0C0F95EA0C0F00F0DEF870
:1039F0002C4481EA030621EA4C5123EA4C5350EA55
:103A0000013518BF52EA033541F4801143F48013A5
:103A100038D0A0FB02CE4FF00005E1FB02E506F036
:103A20000042E0FB03E54FF00006E1FB03569CF08B
:103A3000000F18BF4EF0010EA4F1FF04B6F5007F91
:103A400064F5407404D25FEA4E0E6D4146EB060603
:103A500042EAC62141EA55514FEAC52040EA5E508C
:103A60004FEACE2EB4F1FD0C88BFBCF5E06F1ED836
:103A7000BEF1004F08BF5FEA500E50F1000041EB6D
:103A8000045170BD06F0004646EA010140EA02001A
:103A900081EA0301B4EB5C04C2BFD4EB0C0541EA3C
:103AA000045170BD41F480114FF0000E013C00F351
:103AB000AB8014F1360FDEBF002001F0004170BD75
:103AC000C4F10004203C35DA0C341BDC04F114048E
:103AD000C4F1200500FA05F320FA04F001FA05F21A
:103AE00040EA020001F0004221F0004110EBD370E7
:103AF00021FA04F642EB06015EEA430E08BF20EA13
:103B0000D37070BDC4F10C04C4F1200500FA04F3B5
:103B100020FA05F001FA04F240EA020001F0004147
:103B200010EBD37041F100015EEA430E08BF20EABA
:103B3000D37070BDC4F1200500FA05F24EEA020E02
:103B400020FA04F301FA05F243EA020321FA04F031
:103B500001F0004121FA04F220EA020000EBD370E8
:103B60005EEA430E08BF20EAD37070BD94F0000FE8
:103B70000FD101F00046400041EB010111F4801F1C
:103B800008BF013CF7D041EA060195F0000F18BFCD
:103B9000704703F00046520043EB030313F4801F09
:103BA00008BF013DF7D043EA0603704794EA0C0FC3
:103BB0000CEA135518BF95EA0C0F0CD050EA4106D9
:103BC00018BF52EA4306D1D181EA030101F0004156
:103BD0004FF0000070BD50EA410606BF104619467E
:103BE00052EA430619D094EA0C0F02D150EA01368A
:103BF00013D195EA0C0F05D152EA03361CBF1046CB
:103C000019460AD181EA030101F0004141F0FE4169
:103C100041F470014FF0000070BD41F0FE4141F4ED
:103C2000780170BD70B54FF0FF0C4CF4E06C1CEAED
:103C300011541DBF1CEA135594EA0C0F95EA0C0FA2
:103C400000F0A7F8A4EB050481EA030E52EA03355D
:103C50004FEA013100F088804FEA03334FF080557E
:103C600045EA131343EA12634FEA022245EA1115AB
:103C700045EA10654FEA00260EF000419D4208BF5C
:103C8000964244F1FD0404F5407402D25B084FEA09
:103C90003202B61A65EB03055B084FEA32024FF4B5
:103CA00080104FF4002CB6EB020E75EB030E22BF12
:103CB000B61A754640EA0C005B084FEA3202B6EBD2
:103CC000020E75EB030E22BFB61A754640EA5C0081
:103CD0005B084FEA3202B6EB020E75EB030E22BF11
:103CE000B61A754640EA9C005B084FEA3202B6EB12
:103CF000020E75EB030E22BFB61A754640EADC00D1
:103D000055EA060E18D04FEA051545EA16754FEA32
:103D100006164FEAC30343EA52734FEAC2025FEA50
:103D20001C1CC0D111F4801F0BD141EA00014FF0DF
:103D300000004FF0004CB6E711F4801F04BF0143B0
:103D40000020B4F1FD0C88BFBCF5E06F3FF6AFAECC
:103D5000B5EB030C04BFB6EB020C5FEA500C50F15C
:103D6000000041EB045170BD0EF0004E4EEA1131DF
:103D700014EB5C04C2BFD4EB0C0541EA045170BDE6
:103D800041F480114FF0000E013C90E645EA060E2A
:103D90008DE60CEA135594EA0C0F08BF95EA0C0F58
:103DA0003FF43BAF94EA0C0F0AD150EA01347FF4A0
:103DB00034AF95EA0C0F7FF425AF104619462CE777
:103DC00095EA0C0F06D152EA03353FF4FDAE1046DA
:103DD000194622E750EA410618BF52EA43067FF42B
:103DE000C5AE50EA41047FF40DAF52EA43057FF4BB
:103DF000EBAE12E74FF0FF3C06E000BF4FF0010CC6
:103E000002E000BF4FF0010C4DF804CD4FEA410C29
:103E10007FEA6C5C4FEA430C18BF7FEA6C5C1BD0F6
:103E200001B050EA410C0CBF52EA430C91EA030F77
:103E300002BF90EA020F0020704710F1000F91EAD4
:103E4000030F58BF994208BF90422CBFD8176FEAA2
:103E5000E37040F0010070474FEA410C7FEA6C5C70
:103E600002D150EA013C07D14FEA430C7FEA6C5C77
:103E7000D6D152EA033CD3D05DF8040B704700BFA3
:103E80008446104662468C461946634600E000BFF1
:103E900001B5FFF7B7FF002848BF10F1000F01BDC3
:103EA0004DF808EDFFF7F4FF0CBF012000205DF88E
:103EB00008FB00BF4DF808EDFFF7EAFF34BF012013
:103EC00000205DF808FB00BF4DF808EDFFF7E0FFAC
:103ED00094BF012000205DF808FB00BF4DF808EDFD
:103EE000FFF7CEFF94BF012000205DF808FB00BF64
:103EF0004DF808EDFFF7C4FF34BF012000205DF846
:103F000008FB00BF4A0011D212F5001211D20DD5E4
:103F10006FF47873B3EB62520ED44FEAC12343F0CF
:103F2000004343EA505323FA02F070474FF0000079
:103F3000704750EA013002D14FF0FF3070474FF028
:103F400000007047014B1868704700BF78040020DC
:103F50002E2E2F73797374656D2F7372632F7374A4
:103F60006D333266332D7374647065726970682FB7
:103F700073746D3332663330785F6770696F2E63A8
:103F8000000000002E2E2F73797374656D2F7372ED
:103F9000632F73746D333266332D7374647065727E
:103FA0006970682F73746D3332663330785F726373
:103FB000632E63002E2E2F73797374656D2F7372C9
:103FC000632F73746D333266332D7374647065724E
:103FD0006970682F73746D3332663330785F74693B
:103FE0006D2E630061626F727428292C20657869D8
:103FF00074696E672E2E2E002C2066756E637469B0
:104000006F6E3A20000000000000000061737365CD
:104010007274696F6E2022257322206661696C6557
:10402000643A2066696C6520222573222C206C6915
:104030006E65202564257325730A0000617373651E
:1040400072745F706172616D2829206661696C65A8
:10405000643A2066696C6520222573222C206C69E5
:104060006E652025640A0000313233343536373826
:10407000392A302348656C6C6F2041524D20576FB0
:10408000726C64210000000053797374656D2063C5
:104090006C6F636B3A202575487A0A0053414C5681
:1040A0004520504600000000464F47474941000068
:1040B00050494E3A00000000414C4C41524D4500E1
:1040C000494E53455249544F00000000494E494261
:1040D00049544F0045525241544F00004556454EF9
:1040E000544F0000504F525441203100504F525411
:1040F000412032005354414E5A412031000000000B
:104100005354414E5A412032000000005354414E56
:104110005A412033000000005354414E5A4120348C
:10412000000000006C6F670000000000430000000A
:104130007856341200000000010203040102030457
:10414000060708090000010002000400060008003C
:104150000A000C0010002000400080000001000058
:10416000840400200000000000A24A0400000000B7
:104170000000000001020304060708090100000016
:10418000000000003C030020A40300200C040020D9
:10419000000000000000000000000000000000001F
:1041A000000000000000000000000000000000000F
:1041B000000000002C41000800000000000000008A
:1041C00000000000000000000000000000000000EF
:1041D00000000000000000000000000000000000DF
:1041E00000000000000000000000000000000000CF
:1041F00000000000000000000000000000000000BF
:1042000000000000000000000000000000000000AE
:10421000000000000000000000000000000000009E
:10422000000000000000000001000000000000008D
:104230000E33CDAB34126DE6ECDE05000B00000052
:10424000000000000000000000000000000000006E
:10425000000000000000000000000000000000005E
:10426000000000000000000000000000000000004E
:10427000000000000000000000000000000000003E
:1045A0000000000000000000500000203254769807
:040000050800018965
:00000001FF
