:020000040800F2
:1000000000A00020E1030008E9030008F103000854
:10001000150400081D040008410400080000000049
:10002000000000000000000000000000650400085F
:100030006D04000800000000750400087D31000810
:10004000950400089504000895040008950400082C
:10005000950400089504000895040008950400081C
:10006000950400089504000895040008950400080C
:1000700095040008950400089504000895040008FC
:1000800095040008950400089504000895040008EC
:1000900095040008950400089504000895040008DC
:1000A00095040008950400089504000895040008CC
:1000B00095040008950400089504000895040008BC
:1000C00095040008950400089504000895040008AC
:1000D000950400089504000895040008950400089C
:1000E000950400089504000895040008950400088C
:1000F000950400089504000895040008950400087C
:10010000000000000000000000000000950400084E
:10011000950400089504000895040008950400085B
:10012000950400089504000895040008950400084B
:10013000950400089504000800000000000000007D
:1001400095040008950400089504000800000000CC
:10015000000000000000000000000000000000009F
:10016000000000000000000095040008950400084D
:1001700095040008000000000000000000000000DE
:10018000000000009504000880B596B000AF02F0B2
:100190006DF940F20003C2F200034BF6BA22CCF62E
:1001A000DE221A6040F24C03C2F200034BF6BA2280
:1001B000CCF6DE221A6040F29C43C0F600037B6559
:1001C0002DE07B6D1B68FB647B6D03F104037B6595
:1001D0007B6D1B68BB647B6D03F104037B657B6DEA
:1001E0001B687B647B6D03F104037B65FB6C7B63A5
:1001F000BB6C3B637B6CFB623B6BBB620BE07B6B62
:100200001A68BB6A1A60BB6A03F10403BB627B6BAA
:1002100003F104037B63FA6ABB6A9A42EFD87A6DF2
:1002200040F2B443C0F600039A42CAD340F200033E
:10023000C2F200031A6845F27863C1F234239A428D
:100240000AD140F24C03C2F200031A6845F232436D
:10025000C9F676039A4200D0FEE740F25003C2F29C
:1002600000034BF6BA22CCF6DE221A6040F25C03A1
:10027000C2F200034BF6BA22CCF6DE221A6040F23C
:10028000B443C0F600033B6520E03B6D1B683B6454
:100290003B6D03F104033B653B6D1B68FB633B6DEA
:1002A00003F104033B653B6C7B62FB6B3B627B6A47
:1002B000FB6107E0FB694FF000021A60FB6903F184
:1002C0000403FB613A6AFB699A42F3D83A6D40F243
:1002D000C443C0F600039A42D7D340F25003C2F29F
:1002E00000031B68002B06D140F25C03C2F200033E
:1002F0001B68002B00D0FEE702F0BEF807F10802F1
:1003000007F104031046194602F08EF840F2C44289
:10031000C0F6000240F2C443C0F60003D31A4FEA0D
:10032000A303BB614FF000037B610BE040F2C443C9
:10033000C0F600037A6953F8223098477B6903F1CD
:1003400001037B61BA697B699A42EFDC40F2C442E7
:10035000C0F6000240F2C443C0F60003D31A4FEACD
:10036000A303BB614FF000037B610BE040F2C44389
:10037000C0F600037A6953F8223098477B6903F18D
:1003800001037B61BA697B699A42EFDCBA687B68DA
:100390001046194602F0F8FEB86340F2C442C0F6B7
:1003A000000240F2C443C0F60003D31A4FEAA3038D
:1003B0003B613B69FB600DE0FB6803F1FF3240F2FB
:1003C000C443C0F6000353F822309847FB6803F19A
:1003D000FF33FB60FB68002BEEDCB86B02F012F819
:1003E00080B500AFFFF7D0FE80B400AF00BEFEE7DF
:1003F0001EF0040F0CBFEFF30880EFF30980714685
:10040000214A104780B483B000AF7860396000BEE5
:10041000FEE700BF80B400AF00BEFEE71EF0040F91
:100420000CBFEFF30880EFF309807146174A1047BD
:1004300080B483B000AF7860396000BEFEE700BFD3
:100440001EF0040F0CBFEFF30880EFF30980714634
:100450000F4A104780B483B000AF7860396000BEA7
:10046000FEE700BF80B400AF00BEFEE780B400AF7F
:1004700000BEFEE780B400AF00BEFEE780B400AF70
:10048000BD4680BC70470000050400083104000828
:0C0490005504000880B400AF00BEFEE779
:10049C00803300080000002050000020803300084A
:1004AC000000001000000010500000206000002030
:0804BC00000000100000001018
:1004C40080B586B000AF786039604FF000037B617F
:1004D4004FF000033B614FF00003FB607B68B3F116
:1004E400904F2AD07A684FF48063C4F600039A428E
:1004F40023D07A684FF40063C4F600039A421CD0F8
:100504007A684FF44063C4F600039A4215D07A68BF
:100514004FF48053C4F600039A420ED07A684FF425
:10052400A053C4F600039A4207D043F20C20C0F64D
:1005340000004FF0B90101F08BFF3B681B68002BF2
:1005440007D143F20C20C0F600004FF0BA0101F0CD
:100554007FFF3B681B79002B13D03B681B79012B71
:100564000FD03B681B79022B0BD03B681B79032B04
:1005740007D043F20C20C0F600004FF0BB0101F09D
:1005840067FF3B68DB79002B0FD03B68DB79012BDD
:100594000BD03B68DB79022B07D043F20C20C0F66A
:1005A40000004FF0BC0101F053FF4FF000037B61EA
:1005B400B1E07B694FF0010202FA03F33B613B684F
:1005C4001A683B691340FB60FA683B699A4240F041
:1005D4009E803B681B79012B03D03B681B79022B5F
:1005E4005ED13B685B79012B0FD03B685B79022BB2
:1005F4000BD03B685B79032B07D043F20C20C0F689
:1006040000004FF0CC0101F023FF7B689A687B69FE
:100614004FEA43034FF0030101FA03F36FEA0303C4
:100624001A407B689A607B689A683B685B791946D4
:100634007B694FEA430301FA03F31A437B689A6028
:100644003B689B79002B0BD03B689B79012B07D02F
:1006540043F20C20C0F600004FF0D30101F0F8FE85
:100664007B689B889AB27B699BB24FF0010101FAC7
:1006740003F39BB26FEA03039BB213409AB27B6805
:100684009A807B689B889AB23B689B7919467B6900
:100694009BB201FA03F39BB213439AB27B689A802C
:1006A4007B681A687B694FEA43034FF0030101FA40
:1006B40003F36FEA03031A407B681A607B681A68C5
:1006C4003B681B7919467B694FEA430301FA03F33C
:1006D4001A437B681A607B68DA687B699BB24FEACD
:1006E40043034FF0030101FA03F36FEA03031A40D3
:1006F4007B68DA607B68DA683B68DB7919467B697A
:100704004FEA430301FA03F31A437B68DA607B6917
:1007140003F101037B617B690F2B7FF64AAF07F17D
:100724001807BD4680BD00BF80B582B000AF7860B9
:100734007B68B3F1904F2AD07A684FF48063C4F693
:1007440000039A4223D07A684FF40063C4F600038E
:100754009A421CD07A684FF44063C4F600039A426C
:1007640015D07A684FF48053C4F600039A420ED031
:100774007A684FF4A053C4F600039A4207D043F2B8
:100784000C20C0F6000040F2771101F061FE7B6896
:100794009B8A9BB2184607F10807BD4680BD00BF7F
:1007A40080B582B000AF78600B467B807B68B3F184
:1007B400904F2AD07A684FF48063C4F600039A42BB
:1007C40023D07A684FF40063C4F600039A421CD025
:1007D4007A684FF44063C4F600039A4215D07A68ED
:1007E4004FF48053C4F600039A420ED07A684FF453
:1007F400A053C4F600039A4207D043F20C20C0F67B
:1008040000004FF4C47101F023FE7B88002B07D154
:1008140043F20C20C0F6000040F2891101F018FEEA
:100824007A887B689A6107F10807BD4680BD00BFDE
:1008340080B582B000AF78600B467B807B68B3F1F3
:10084400904F2AD07A684FF48063C4F600039A422A
:1008540023D07A684FF40063C4F600039A421CD094
:100864007A684FF44063C4F600039A4215D07A685C
:100874004FF48053C4F600039A420ED07A684FF4C2
:10088400A053C4F600039A4207D043F20C20C0F6EA
:1008940000004FF4CD7101F0DBFD7B88002B07D104
:1008A40043F20C20C0F6000040F29B1101F0D0FD91
:1008B4007B687A881A8507F10807BD4680BD00BFAA
:1008C40080B584B000AF786013460A467A807B70A6
:1008D4004FF00003FB604FF00003BB607B68B3F193
:1008E400904F2AD07A684FF48063C4F600039A428A
:1008F40023D07A684FF40063C4F600039A421CD0F4
:100904007A684FF44063C4F600039A4215D07A68BB
:100914004FF48053C4F600039A420ED07A684FF421
:10092400A053C4F600039A4207D043F20C20C0F649
:10093400000040F2032101F08BFD7B88002B34D0B2
:100944007B88012B31D07B88022B2ED07B88032B14
:100954002BD07B88042B28D07B88052B25D07B8843
:10096400062B22D07B88072B1FD07B88082B1CD01A
:100974007B88092B19D07B880A2B16D07B880B2BFC
:1009840013D07B880C2B10D07B880D2B0DD07B884B
:100994000E2B0AD07B880F2B07D043F20C20C0F615
:1009A40000004FF4017101F053FD7B78002B2ED031
:1009B4007B78012B2BD07B78022B28D07B78032BE0
:1009C40025D07B78042B22D07B78052B1FD07B7815
:1009D400062B1CD07B78072B19D07B78082B16D0DC
:1009E4007B78092B13D07B780A2B10D07B780B2BC8
:1009F4000DD07B780E2B0AD07B780F2B07D043F2D7
:100A04000C20C0F6000040F2052101F021FD7A78A7
:100A14007B8803F007034FEA830302FA03F3FB60C6
:100A24007B884FEAD3039BB21A467B884FEAD303F1
:100A34009BB219467B6801F1080153F821107B88A9
:100A440003F007034FEA83034FF00F0000FA03F3A8
:100A54006FEA030319407B6802F1080243F822108D
:100A64007B884FEAD3039BB21A467B6802F10802E3
:100A740053F82220FB681343BB607B884FEAD303FF
:100A84009BB21A467B6802F10802B96843F8221047
:100A940007F11007BD4680BD80B48BB000AF78600D
:100AA4004FF000033B624FF00003FB614FF0000383
:100AB400BB614FF000037B614FF000033B614FF0DB
:100AC40000037B624FF00003FB604FF00003BB6048
:100AD4004FF48053C4F202035B6803F00C033B62DF
:100AE4003B6A042B0AD0082B0FD0002B48D17A681C
:100AF4004FF49053C0F27A03136048E07A684FF4DD
:100B04009053C0F27A03136041E04FF48053C4F26F
:100B140002035B6803F47013FB614FF48053C4F267
:100B240002035B6803F48033BB61FB694FEA9343C0
:100B340003F10203FB61BB69002B08D1FA694FF48E
:100B44001063C0F23D0303FB02F37B6214E04FF435
:100B54008053C4F20203DB6A03F00F0303F10103C1
:100B64007B614FF49053C0F27A037A69B3FBF2F3DA
:100B7400FA6902FB03F37B627B687A6A1A6006E017
:100B84007A684FF49053C0F27A03136000BF4FF4B5
:100B94008053C4F202035B6803F0F0033B623B6AD8
:100BA4004FEA13133B6240F20403C2F200033A6AB1
:100BB4009B181B78DBB2BB607B681A68BB6822FA9F
:100BC40003F27B685A604FF48053C4F202035B68FB
:100BD40003F4E0633B623B6A4FEA13233B6240F257
:100BE4000403C2F200033A6A9B181B78DBB23B6130
:100BF4007B685A683B6922FA03F27B689A604FF477
:100C04008053C4F202035B6803F460533B623B6AA3
:100C14004FEAD3233B6240F20403C2F200033A6A70
:100C24009B181B78DBB2FB607B685A68FB6822FA6E
:100C340003F27B68DA604FF48053C4F20203DB6A88
:100C440003F4F8733B623B6A4FEA13133B6240F2CE
:100C54001403C2F200033A6A33F812309BB23B61C8
:100C64003B6903F01003002B06D07A6A3B69B2FBA0
:100C7400F3F27B681A6103E07B681A687B681A6187
:100C84004FF48053C4F20203DB6A03F478533B62EB
:100C94003B6A4FEA53233B6240F21403C2F200035F
:100CA4003A6A33F812309BB23B613B6903F010039C
:100CB400002B06D07A6A3B69B2FBF3F27B685A6177
:100CC40003E07B681A687B685A614FF48053C4F26E
:100CD40002031B6B03F01003002B06D17A684FF458
:100CE4009053C0F27A03936103E07B681A687B68CF
:100CF4009A614FF48053C4F202031B6B03F0200388
:100D0400002B06D17A684FF49053C0F27A03D36172
:100D140003E07B681A687B68DA614FF48053C4F29D
:100D240002031B6B03F48073002B0ED07B681A68DC
:100D34007B6A9A4209D1FA68BB689A4205D17B6AF8
:100D44004FEA43027B681A6203E07B68DA687B68D7
:100D54001A624FF48053C4F202031B6B03F4007352
:100D6400002B0ED07B681A687B6A9A4209D1FA6814
:100D7400BB689A4205D17B6A4FEA43027B685A6298
:100D840003E07B68DA687B685A624FF48053C4F2EC
:100D940002031B6B03F00303002B04D17B68DA68A6
:100DA4007B689A622AE04FF48053C4F202031B6BFF
:100DB40003F00303012B04D17B681A687B689A62F1
:100DC4001CE04FF48053C4F202031B6B03F00303D3
:100DD400022B04D17B684FF400429A620EE04FF478
:100DE4008053C4F202031B6B03F00303032B05D1EE
:100DF4007A684FF49053C0F27A0393624FF48053AD
:100E0400C4F202031B6B03F44033002B04D17B6850
:100E14009A687B68DA622DE04FF48053C4F20203CF
:100E24001B6B03F44033B3F5803F04D17B681A682D
:100E34007B68DA621EE04FF48053C4F202031B6B3A
:100E440003F44033B3F5003F04D17B684FF4004210
:100E5400DA620FE04FF48053C4F202031B6B03F415
:100E64004033B3F5403F05D17A684FF49053C0F254
:100E74007A03D3624FF48053C4F202031B6B03F46E
:100E84004023002B04D17B689A687B681A632DE0A9
:100E94004FF48053C4F202031B6B03F44023B3F5F5
:100EA400802F04D17B681A687B681A631EE04FF4B4
:100EB4008053C4F202031B6B03F44023B3F5002FE9
:100EC40004D17B684FF400421A630FE04FF480535F
:100ED400C4F202031B6B03F44023B3F5402F05D186
:100EE4007A684FF49053C0F27A0313634FF480533B
:100EF400C4F202031B6B03F44013002B04D17B6880
:100F04009A687B685A632DE04FF48053C4F202035D
:100F14001B6B03F44013B3F5801F04D17B681A687C
:100F24007B685A631EE04FF48053C4F202031B6BC8
:100F340003F44013B3F5001F04D17B684FF400425F
:100F44005A630FE04FF48053C4F202031B6B03F4A3
:100F54004013B3F5401F05D17A684FF49053C0F2A3
:100F64007A0353634FF48053C4F202031B6B03F4FC
:100F74004003002B04D17B689A687B689A632DE058
:100F84004FF48053C4F202031B6B03F44003B3F524
:100F9400800F04D17B681A687B689A631EE04FF463
:100FA4008053C4F202031B6B03F44003B3F5000F38
:100FB40004D17B684FF400429A630FE04FF48053EE
:100FC400C4F202031B6B03F44003B3F5400F05D1D5
:100FD4007A684FF49053C0F27A03936307F12C07B5
:100FE400BD4680BC704700BF80B582B000AF78605A
:100FF4000B46FB707A684FF6A873CCF681631340F6
:10100400002B02D17B68002B07D143F24020C0F6AD
:10101400000040F25C5101F01BFAFB78002B0AD06F
:10102400FB78012B07D043F24020C0F6000040F2C9
:101034005D5101F00DFAFB78002B0CD04FF4805376
:10104400C4F202034FF48052C4F2020251697A6876
:101054000A435A610DE04FF48053C4F202034FF483
:101064008052C4F2020251697A686FEA02020A40AD
:101074005A6107F10807BD4680BD00BF80B582B044
:1010840000AF78600B46FB707B6823F4EF2323F0FA
:101094000103002B02D17B68002B07D143F24020CF
:1010A400C0F6000040F27F5101F0D2F9FB78002B2A
:1010B4000AD0FB78012B07D043F24020C0F6000091
:1010C4004FF4B06101F0C4F9FB78002B0CD04FF45D
:1010D4008053C4F202034FF48052C4F202029169B5
:1010E4007A680A439A610DE04FF48053C4F2020314
:1010F4004FF48052C4F2020291697A686FEA0202E4
:101104000A409A6107F10807BD4680BD80B584B0E6
:1011140000AF786039604FF00003FB817A684FF4C8
:101124003053C4F201039A4243D07B68B3F1804F39
:101134003FD07A684FF48063C4F200039A4238D0F7
:101144007A684FF40063C4F200039A4231D07A689B
:101154004FF48053C4F200039A422AD07A684FF4C1
:10116400A053C4F200039A4223D07A684FF4505338
:10117400C4F201039A421CD07A684FF48043C4F24B
:1011840001039A4215D07A684FF48843C4F20103EC
:101194009A420ED07A684FF49043C4F201039A4203
:1011A40007D043F27020C0F600004FF4887101F0BC
:1011B4004FF93B685B88002B17D03B685B88102B8A
:1011C40013D03B685B88202B0FD03B685B88402B97
:1011D4000BD03B685B88602B07D043F27020C0F6CD
:1011E400000040F2111101F033F93B681B89002B18
:1011F40011D03B681B89B3F5807F0CD03B681B89F9
:10120400B3F5007F07D043F27020C0F600004FF41E
:10121400897101F01DF97B681B88FB817A684FF4A2
:101224003053C4F201039A4218D07A684FF45053F1
:10123400C4F201039A4211D07B68B3F1804F0DD000
:101244007A684FF48063C4F200039A4206D07A6845
:101254004FF40063C4F200039A4208D1FB8923F0DF
:101264007003FB813B685A88FB891343FB817A68CE
:101274004FF48053C4F200039A420FD07A684FF4BB
:10128400A053C4F200039A4208D0FB8923F44073AC
:10129400FB813B681A89FB891343FB817B68FA89CC
:1012A4001A803B685A687B68DA623B681A887B68F4
:1012B4001A857A684FF43053C4F201039A421BD062
:1012C4007A684FF45053C4F201039A4214D07A68F6
:1012D4004FF48043C4F201039A420DD07A684FF46C
:1012E4008843C4F201039A4206D07A684FF49043CB
:1012F400C4F201039A4204D13B689B7A1A467B6884
:101304001A867B684FF001025A6107F11007BD4647
:1013140080BD00BF80B582B000AF78600B46FB7023
:101324007A684FF43053C4F201039A4243D07B6885
:10133400B3F1804F3FD07A684FF48063C4F2000366
:101344009A4238D07A684FF40063C4F200039A4298
:1013540031D07A684FF48053C4F200039A422AD001
:101364007A684FF4A053C4F200039A4223D07A68F7
:101374004FF45053C4F201039A421CD07A684FF4DC
:101384008043C4F201039A4215D07A684FF488432B
:10139400C4F201039A420ED07A684FF49043C4F227
:1013A40001039A4207D043F27020C0F6000040F2D5
:1013B400592101F04DF8FB78002B0AD0FB78012B62
:1013C40007D043F27020C0F6000040F25A2101F029
:1013D4003FF8FB78002B08D07B681B889BB243F056
:1013E40001039AB27B681A8007E07B681B889BB272
:1013F40023F001039AB27B681A8007F10807BD46FF
:1014040080BD00BF80B586B000AF786039604FF012
:101414000003FB604FF000037B614FF000033B616E
:101424007A684FF43053C4F201039A4235D07B6892
:10143400B3F1804F31D07A684FF48063C4F2000373
:101444009A422AD07A684FF40063C4F200039A42A5
:1014540023D07A684FF45053C4F201039A421CD04B
:101464007A684FF48043C4F201039A4215D07A6833
:101474004FF48843C4F201039A420ED07A684FF4C1
:101484009043C4F201039A4207D043F27020C0F69D
:10149400000040F2A92100F0DBFF3B681B68002B31
:1014A40048D03B681B68102B44D03B681B68202B3A
:1014B40040D03B681B68302B3CD03B681B68602BDA
:1014C40038D03B681B68702B34D03B681B68B3F57D
:1014D400803F2FD03B681A684FF01003C0F201031D
:1014E4009A4227D03B681A684FF04003C0F20103C8
:1014F4009A421FD03B681A684FF05003C0F20103B0
:101504009A4217D03B681A684FF06003C0F2010397
:101514009A420FD03B681A684FF07003C0F201037F
:101524009A4207D043F27020C0F6000040F2AA218C
:1015340000F08EFF3B689B88002B0BD03B689B8898
:10154400012B07D043F27020C0F6000040F2AB211B
:1015540000F07EFF3B689B89002B0BD03B689B8986
:10156400022B07D043F27020C0F600004FF42B7119
:1015740000F06EFF7B681B6A23F001027B681A622D
:101584007B681B6A7B617B685B683B617B689B69EA
:10159400FB60FB6823F4803323F07003FB60FB687B
:1015A40023F00303FB603B681B68FA681343FB608A
:1015B4007B6923F002037B613B689B897A6913434F
:1015C4007B613B689B887A6913437B617A684FF43B
:1015D4003053C4F201039A421BD07A684FF450533B
:1015E400C4F201039A4214D07A684FF48043C4F2DF
:1015F40001039A420DD07A684FF48843C4F2010380
:101604009A4206D07A684FF49043C4F201039A4296
:1016140065D13B68DB88002B0BD03B68DB88042B4F
:1016240007D043F27020C0F6000040F2C92100F058
:101634000FFF3B68DB89002B0BD03B68DB89082B51
:1016440007D043F27020C0F6000040F2CA2100F037
:10165400FFFE3B685B8AB3F5007F0BD03B685B8A77
:10166400002B07D043F27020C0F6000040F2CB21DB
:1016740000F0EEFE3B681B8AB3F5807F0BD03B681D
:101684001B8A002B07D043F27020C0F600004FF4F1
:10169400337100F0DDFE7B6923F008037B613B6856
:1016A400DB897A6913437B617B6923F004037B61E3
:1016B4003B68DB887A6913437B613B6923F480735D
:1016C4003B613B6923F400733B613B681B8A3A69C5
:1016D40013433B613B685B8A3A6913433B617B6814
:1016E4003A695A607B68FA689A613B689A687B68D1
:1016F4005A637B687A691A6207F11807BD4680BD90
:1017040080B586B000AF786039604FF00003FB60AD
:101714004FF000037B614FF000033B617A684FF4A4
:101724003053C4F201039A4227D07B68B3F1804F4F
:1017340023D07A684FF48063C4F200039A421CD029
:101744007A684FF40063C4F200039A4215D07A68B1
:101754004FF45053C4F201039A420ED07A684FF406
:101764008043C4F201039A4207D043F27020C0F6CA
:10177400000040F2F92100F06BFE3B681B68002B6F
:1017840048D03B681B68102B44D03B681B68202B57
:1017940040D03B681B68302B3CD03B681B68602BF7
:1017A40038D03B681B68702B34D03B681B68B3F59A
:1017B400803F2FD03B681A684FF01003C0F201033A
:1017C4009A4227D03B681A684FF04003C0F20103E5
:1017D4009A421FD03B681A684FF05003C0F20103CD
:1017E4009A4217D03B681A684FF06003C0F20103B5
:1017F4009A420FD03B681A684FF07003C0F201039D
:101804009A4207D043F27020C0F6000040F2FA2159
:1018140000F01EFE3B689B88002B0BD03B689B8826
:10182400012B07D043F27020C0F6000040F2FB21E8
:1018340000F00EFE3B689B89002B0BD03B689B8914
:10184400022B07D043F27020C0F600004FF43F7122
:1018540000F0FEFD7B681B6A23F010027B681A62AD
:101864007B681B6A7B617B685B683B617B689B6907
:10187400FB60FB6823F0807323F4E043FB60FB68A8
:1018840023F44073FB603B681B684FEA0323FA6848
:101894001343FB607B6923F020037B613B689B89D6
:1018A4004FEA03137A6913437B613B689B884FEAD1
:1018B40003137A6913437B617A684FF43053C4F29B
:1018C40001039A4206D07A684FF45053C4F20103DC
:1018D4009A426DD13B68DB88002B0BD03B68DB88D8
:1018E400042B07D043F27020C0F6000040F21A31F6
:1018F40000F0AEFD3B68DB89002B0BD03B68DB8935
:10190400082B07D043F27020C0F6000040F21B31D0
:1019140000F09EFD3B685B8AB3F5007F0BD03B680B
:101924005B8A002B07D043F27020C0F600004FF40E
:10193400477100F08DFD3B681B8AB3F5807F0BD0A7
:101944003B681B8A002B07D043F27020C0F60000CE
:1019540040F21D3100F07CFD7B6923F080037B6144
:101964003B68DB894FEA03137A6913437B617B6924
:1019740023F040037B613B68DB884FEA03137A69F9
:1019840013437B613B6923F480633B613B6923F42C
:1019940000633B613B681B8A4FEA83033A69134344
:1019A4003B613B685B8A4FEA83033A6913433B61BB
:1019B4007B683A695A607B68FA689A613B689A68FE
:1019C4007B689A637B687A691A6207F11807BD46D7
:1019D40080BD00BF80B586B000AF786039604FF03D
:1019E4000003FB604FF000037B614FF000033B6199
:1019F4007A684FF43053C4F201039A4220D07B68D2
:101A0400B3F1804F1CD07A684FF48063C4F20003B2
:101A14009A4215D07A684FF40063C4F200039A42E4
:101A24000ED07A684FF45053C4F201039A4207D09F
:101A340043F27020C0F6000040F24A3100F008FD85
:101A44003B681B68002B48D03B681B68102B44D0B4
:101A54003B681B68202B40D03B681B68302B3CD074
:101A64003B681B68602B38D03B681B68702B34D0F4
:101A74003B681B68B3F5803F2FD03B681A684FF072
:101A84001003C0F201039A4227D03B681A684FF052
:101A94004003C0F201039A421FD03B681A684FF01A
:101AA4005003C0F201039A4217D03B681A684FF002
:101AB4006003C0F201039A420FD03B681A684FF0EA
:101AC4007003C0F201039A4207D043F27020C0F6BB
:101AD400000040F24B3100F0BBFC3B689B88002BBC
:101AE4000BD03B689B88012B07D043F27020C0F6D3
:101AF40000004FF4537100F0ABFC3B689B89002B52
:101B04000BD03B689B89022B07D043F27020C0F6B0
:101B1400000040F24D3100F09BFC7B681B6A23F40B
:101B240080727B681A627B681B6A7B617B685B6876
:101B34003B617B68DB69FB60FB6823F07003FB603F
:101B4400FB6823F00303FB603B681B68FA681343DC
:101B5400FB607B6923F400737B613B689B894FEADC
:101B640003237A6913437B613B689B884FEA032311
:101B74007A6913437B617A684FF43053C4F20103EA
:101B84009A4206D07A684FF45053C4F201039A4241
:101B94006DD13B68DB88002B0BD03B68DB88042BC2
:101BA40007D043F27020C0F6000040F26A3100F022
:101BB4004FFC3B68DB89002B0BD03B68DB89082B8F
:101BC40007D043F27020C0F6000040F26B3100F001
:101BD4003FFC3B685B8AB3F5007F0BD03B685B8AB4
:101BE400002B07D043F27020C0F600004FF45B7165
:101BF40000F02EFC3B681B8AB3F5807F0BD03B685A
:101C04001B8A002B07D043F27020C0F6000040F27C
:101C14006D3100F01DFC7B6923F400637B613B683C
:101C2400DB894FEA03237A6913437B617B6923F4DD
:101C340080637B613B68DB884FEA03237A69134343
:101C44007B613B6923F480533B613B6923F400537C
:101C54003B613B681B8A4FEA03133A6913433B61B8
:101C64003B685B8A4FEA03133A6913433B617B6821
:101C74003A695A607B68FA68DA613B689A687B68FB
:101C8400DA637B687A691A6207F11807BD4680BD7A
:101C940080B586B000AF786039604FF000033B61D7
:101CA4004FF00003FB604FF000037B617A684FF450
:101CB4003053C4F201039A4220D07B68B3F1804FC1
:101CC4001CD07A684FF48063C4F200039A4215D0A2
:101CD4007A684FF40063C4F200039A420ED07A6823
:101CE4004FF45053C4F201039A4207D043F27020D8
:101CF400C0F6000040F29A3100F0AAFB3B681B6872
:101D0400002B48D03B681B68102B44D03B681B68F1
:101D1400202B40D03B681B68302B3CD03B681B68B1
:101D2400602B38D03B681B68702B34D03B681B6831
:101D3400B3F5803F2FD03B681A684FF01003C0F210
:101D440001039A4227D03B681A684FF04003C0F25F
:101D540001039A421FD03B681A684FF05003C0F247
:101D640001039A4217D03B681A684FF06003C0F22F
:101D740001039A420FD03B681A684FF07003C0F217
:101D840001039A4207D043F27020C0F6000040F2EB
:101D94009B3100F05DFB3B689B88002B0BD03B68BC
:101DA4009B88012B07D043F27020C0F600004FF44B
:101DB400677100F04DFB3B689B89002B0BD03B689F
:101DC4009B89022B07D043F27020C0F6000040F23A
:101DD4009D3100F03DFB7B681B6A23F480527B68D5
:101DE4001A627B681B6AFB607B685B687B617B684B
:101DF400DB693B613B6923F4E0433B613B6923F4CA
:101E040040733B613B681B684FEA03233A69134301
:101E14003B61FB6823F40053FB603B689B894FEAFA
:101E24000333FA681343FB603B689B884FEA033330
:101E3400FA681343FB607A684FF43053C4F2010329
:101E44009A4206D07A684FF45053C4F201039A427E
:101E54001BD13B681B8AB3F5807F0BD03B681B8A80
:101E6400002B07D043F27020C0F6000040F2BB31D3
:101E740000F0EEFA7B6923F480437B613B681B8AA4
:101E84004FEA83137A6913437B617B687A695A60EA
:101E94007B683A69DA613B689A687B681A647B6894
:101EA400FA681A6207F11807BD4680BD80B582B092
:101EB40000AF786039607A684FF43053C4F201039C
:101EC4009A4235D07B68B3F1804F31D07A684FF4B1
:101ED4008063C4F200039A422AD07A684FF4006304
:101EE400C4F200039A4223D07A684FF45053C4F2E8
:101EF40001039A421CD07A684FF48043C4F2010370
:101F04009A4215D07A684FF48843C4F201039A4286
:101F14000ED07A684FF49043C4F201039A4207D07A
:101F240043F27020C0F6000040F2095100F090FA2C
:101F34007B683A685A6307F10807BD4680BD00BF55
:101F440080B582B000AF786039607A684FF430535E
:101F5400C4F201039A4227D07B68B3F1804F23D0A7
:101F64007A684FF48063C4F200039A421CD07A6802
:101F74004FF40063C4F200039A4215D07A684FF418
:101F84005053C4F201039A420ED07A684FF480434E
:101F9400C4F201039A4207D043F27020C0F6000055
:101FA40040F2195100F054FA7B683A689A6307F1D9
:101FB4000807BD4680BD00BF80B582B000AF786021
:101FC40039607A684FF43053C4F201039A4220D046
:101FD4007B68B3F1804F1CD07A684FF48063C4F2FD
:101FE40000039A4215D07A684FF40063C4F20003E8
:101FF4009A420ED07A684FF45053C4F201039A42C5
:1020040007D043F27020C0F600004FF4A56100F041
:102014001FFA7B683A68DA6307F10807BD4680BD9A
:1020240080B582B000AF786039607A684FF430537D
:10203400C4F201039A4220D07B68B3F1804F1CD0D4
:102044007A684FF48063C4F200039A4215D07A6828
:102054004FF40063C4F200039A420ED07A684FF43E
:102064005053C4F201039A4207D043F27020C0F6E1
:10207400000040F2375100F0EBF97B683A681A64CB
:1020840007F10807BD4680BD80B584B000AF786015
:102094000B467B804FF00003FB607A684FF43053AB
:1020A400C4F201039A4235D07B68B3F1804F31D03A
:1020B4007A684FF48063C4F200039A422AD07A68A3
:1020C4004FF40063C4F200039A4223D07A684FF4B9
:1020D4005053C4F201039A421CD07A684FF48043EF
:1020E400C4F201039A4215D07A684FF48843C4F2CB
:1020F40001039A420ED07A684FF49043C4F201036C
:102104009A4207D043F27020C0F6000040F21361F7
:1021140000F09EF97B88082B0AD07B88002B07D01F
:1021240043F27020C0F6000040F2146100F090F910
:102134007B689B69FB60FB6823F00803FB607B887A
:10214400FA681343FB607B68FA689A6107F1100729
:10215400BD4680BD80B584B000AF78600B467B80FF
:102164004FF00003FB607A684FF43053C4F201036C
:102174009A4227D07B68B3F1804F23D07A684FF41A
:102184008063C4F200039A421CD07A684FF400635F
:10219400C4F200039A4215D07A684FF45053C4F243
:1021A40001039A420ED07A684FF48043C4F20103CB
:1021B4009A4207D043F27020C0F6000040F2316129
:1021C40000F046F97B88082B0AD07B88002B07D0C7
:1021D40043F27020C0F6000040F2326100F038F99A
:1021E4007B689B69FB60FB6823F40063FB607B886E
:1021F4004FEA0323FA681343FB607B68FA689A6129
:1022040007F11007BD4680BD80B584B000AF78608B
:102214000B467B804FF00003FB607A684FF4305329
:10222400C4F201039A4220D07B68B3F1804F1CD0E2
:102234007A684FF48063C4F200039A4215D07A6836
:102244004FF40063C4F200039A420ED07A684FF44C
:102254005053C4F201039A4207D043F27020C0F6EF
:10226400000040F24E6100F0F3F87B88082B0AD09E
:102274007B88002B07D043F27020C0F6000040F2A8
:102284004F6100F0E5F87B68DB69FB60FB6823F0D5
:102294000803FB607B88FA681343FB607B68FA6879
:1022A400DA6107F11007BD4680BD00BF80B584B078
:1022B40000AF78600B467B804FF00003FB607A68C8
:1022C4004FF43053C4F201039A4220D07B68B3F137
:1022D400804F1CD07A684FF48063C4F200039A42A2
:1022E40015D07A684FF40063C4F200039A420ED00A
:1022F4007A684FF45053C4F201039A4207D043F270
:102304007020C0F6000040F26B6100F0A1F87B88F9
:10231400082B0AD07B88002B07D043F27020C0F62C
:10232400000040F26C6100F093F87B68DB69FB60AD
:10233400FB6823F40063FB607B884FEA0323FA689D
:102344001343FB607B68FA68DA6107F11007BD4646
:1023540080BD00BF80B582B000AF78600B46FB70D3
:102364007A684FF43053C4F201039A4223D07A6856
:102374004FF45053C4F201039A421CD07A684FF4CC
:102384008043C4F201039A4215D07A684FF488431B
:10239400C4F201039A420ED07A684FF49043C4F217
:1023A40001039A4207D043F27020C0F6000040F6C1
:1023B4002F3100F04DF8FB78002B0AD0FB78012B6D
:1023C40007D043F27020C0F600004FF4336100F0F0
:1023D4003FF8FB78002B06D07B685B6C43F400422B
:1023E4007B685A6407E07B685B6C4FEA43434FEABF
:1023F40053437A68536407F10807BD4680BD00BFA4
:1024040080B483B000AF7860FEE700BF80B582B0CF
:1024140000AF43F2A023C0F600037B604FF001003D
:10242400FFF7EEFF80B483B000AF786039607B685B
:102434004FF001021A603A6840F23003C2F200031E
:10244400136000BF07F10C07BD4680BC704700BF96
:1024540080B584B000AF7860396043F2F823C0F6E9
:102464000003FB60FFF7D2FF80B500AF00F008F86F
:1024740080BD00BF80B500AF00F072F880BD00BF22
:1024840080B500AF4FF48053C4F202034FF480527E
:10249400C4F20202126842F001021A604FF4805240
:1024A400C4F202024FF48053C4F2020359684CF29E
:1024B4000C03CFF67F030B4053604FF48053C4F2F8
:1024C40002034FF48052C4F20202126822F08472B2
:1024D40022F480321A604FF48053C4F202034FF4A2
:1024E4008052C4F20202126822F480221A604FF46D
:1024F4008053C4F202034FF48052C4F202025268C1
:1025040022F4FE025A604FF48053C4F202034FF4E3
:102514008052C4F20202D26A22F00F02DA624FF44D
:102524008052C4F202024FF48053C4F20203196BC6
:102534004FF6CC43CFF600730B4013634FF4805334
:10254400C4F202034FF000029A6000F0A7F84FF4BF
:102554006D43CEF200034FF000629A6080BD00BF6D
:1025640080B485B000AF4FF00003FB604FF0000370
:10257400BB604FF000037B604FF000033B604FF4FF
:102584008053C4F202035B6803F00C03FB60FB6836
:10259400042B0DD0082B15D0002B53D140F2380357
:1025A400C2F200034FF49052C0F27A021A6053E070
:1025B40040F23803C2F200034FF49052C0F27A02A0
:1025C4001A6049E04FF48053C4F202035B6803F4D9
:1025D4007013BB604FF48053C4F202035B6803F4CE
:1025E40080337B60BB684FEA934303F10203BB6013
:1025F4007B68002B0CD1BA684FF41063C0F23D0322
:1026040003FB02F240F23803C2F200031A6023E033
:102614004FF48053C4F20203DB6A03F00F0303F1A7
:1026240001033B604FF49053C0F27A033A68B3FB62
:10263400F2F3BA6802FB03F240F23803C2F2000379
:102644001A6009E040F23803C2F200034FF49052DA
:10265400C0F27A021A6000BF4FF48053C4F202033E
:102664005B6803F0F0034FEA131240F23C03C2F23A
:1026740000039B5CDBB2FB6040F23803C2F2000350
:102684001A68FB6822FA03F240F23803C2F200032C
:102694001A6007F11407BD4680BC704780B483B04C
:1026A40000AF4FF000037B604FF000033B604FF43A
:1026B4008053C4F202034FF48052C4F2020212683F
:1026C40042F480321A604FF48053C4F202031B6850
:1026D40003F400333B607B6803F101037B603B68D8
:1026E400002B03D17B68B3F5A06FECD14FF480537A
:1026F400C4F202031B6803F40033002B03D04FF031
:1027040001033B6002E04FF000033B603B68012B98
:1027140076D14FF40053C4F202034FF012021A6050
:102724004FF48053C4F202034FF48052C4F2020205
:1027340052685A604FF48053C4F202034FF480523B
:10274400C4F2020252685A604FF48053C4F2020386
:102754004FF48052C4F20202526842F480625A601A
:102764004FF48053C4F202034FF48052C4F20202C5
:10277400526822F47C125A604FF48053C4F202036C
:102784004FF48052C4F20202526842F4E8125A60D2
:102794004FF48053C4F202034FF48052C4F2020295
:1027A400126842F080721A6000BF4FF48053C4F282
:1027B40002031B6803F00073002BF6D04FF4805320
:1027C400C4F202034FF48052C4F20202526822F0AF
:1027D40003025A604FF48053C4F202034FF4805250
:1027E400C4F20202526842F002025A6000BF4FF47F
:1027F4008053C4F202035B6803F00C03082BF6D188
:1028040007F10C07BD4680BC704700BF80B586B099
:1028140000AF78604FF400100121FEF7E5FB4FF4A0
:102824000043FB6001233B740023BB7403237B74CC
:102834000023FB7407F10C0308481946FDF740FE1A
:102844007B687B617B6900221A7004484FF4004165
:10285400FDF7EEFF1837BD4680BD00BF00100048ED
:1028640080B483B000AF03463960FB7197F9073039
:10287400002B0BDA0D49FB7903F00F03043B3A6894
:10288400D2B21201D2B20B441A7609E0084997F980
:1028940007303A68D2B21201D2B20B4483F8002353
:1028A4000C37BD465DF8047B704700BF00ED00E0C7
:1028B40000E100E080B582B000AF78607B68013B46
:1028C400B3F1807F01D301230FE00A4A7B68013B07
:1028D40053604FF0FF300F21FFF7C2FF054B00227A
:1028E4009A60044B07221A60002318460837BD4635
:1028F40080BD00BF10E000E080B582B000AF0346A9
:10290400FB71FB7903F01003002B05D04FF09040CE
:102914001021FDF745FF04E04FF090401021FDF732
:1029240087FFFB7903F02003002B05D04FF0904084
:102934002021FDF735FF04E04FF090402021FDF702
:1029440077FFFB7903F04003002B05D04FF0904054
:102954004021FDF725FF04E04FF090404021FDF7B2
:1029640067FFFB795BB2002B05DA4FF090408021C2
:10297400FDF716FF04E04FF090408021FDF758FF6B
:1029840006480421FDF70CFF032000F0C5FB0348B3
:102994000421FDF74DFF0837BD4680BD0004004803
:1029A40080B582B000AF0346FB71FB7903F00103ED
:1029B400002B05D04FF090400121FDF7F1FE04E01B
:1029C4004FF090400121FDF733FFFB7903F0020340
:1029D400002B05D04FF090400221FDF7E1FE04E00A
:1029E4004FF090400221FDF723FFFB7903F004032D
:1029F400002B05D04FF090400421FDF7D1FE04E0F8
:102A04004FF090400421FDF713FFFB7903F0080316
:102A1400002B05D04FF090400821FDF7C1FE04E0E3
:102A24004FF090400821FDF703FFFB7903F01003FA
:102A3400002B05D04FF090401021FDF7B1FE04E0CB
:102A44004FF090401021FDF7F3FEFB7903F02003D3
:102A5400002B05D04FF090402021FDF7A1FE04E0AB
:102A64004FF090402021FDF7E3FEFB7903F0400393
:102A7400002B05D04FF090404021FDF791FE04E07B
:102A84004FF090404021FDF7D3FEFB795BB2002B61
:102A940005DA4FF090408021FDF782FE04E04FF00C
:102AA40090408021FDF7C4FE08480421FDF778FE1C
:102AB400032000F031FB05480421FDF7B9FE022094
:102AC40000F02AFB0837BD4680BD00BF0004004863
:102AD40080B582B000AF0346FB7105480121FDF7C4
:102AE400A7FEFB791846FFF75BFF0837BD4680BD9C
:102AF4000004004880B582B000AF0346FB7105486E
:102B04000121FDF74DFEFB791846FFF749FF083711
:102B1400BD4680BD0004004880B594B000AF3B1DA5
:102B24001846FDF7B9FFBB68384AA2FB03239B098B
:102B34001846FFF7BFFE0346002B00D0FEE74FF414
:102B440000300121FEF750FAFF233B64012387F88C
:102B54004430002387F84630032387F845300023A8
:102B640087F8473007F140034FF090401946FDF7CE
:102B7400A7FC4FF480200121FEF736FA07233B64BB
:102B8400012387F84430002387F84630032387F86D
:102B94004530002387F8473007F140031C481946A5
:102BA400FDF78EFC1A480421FDF742FE1848012166
:102BB400FDF73EFE16480221FDF73AFE1448FDF7E4
:102BC400B3FD0346FB64134BBB64102000F0A4FA6E
:102BD4003020FFF791FE052000F09EFA3020FFF729
:102BE4008BFE012000F098FA3020FFF785FE382094
:102BF400FFF76EFF0C20FFF76BFF0120FFF768FF64
:102C04000620FFF765FF5037BD4680BDD34D6210E7
:102C1400000400482433000880B59AB000AF4FF494
:102C240000100121FEF7E0F9022387F86030002349
:102C340087F86230032387F86130002387F8633014
:102C44004FF40073FB6507F15C033A481946FDF73E
:102C540037FC384809210222FDF732FE00237B6647
:102C64004FF400600121FEF709FA07F11403184636
:102C7400FDF712FF3B6A304AA2FB03239B09013B89
:102C84007B664A237B657B6E9BB2A7F8503000239A
:102C9400A7F858300023A7F85230002387F85A3099
:102CA40007F1500325481946FEF730FA60233B60CC
:102CB4000123BB800023BB600023BB814FF48073DE
:102CC4003B820423FB800823FB814FF400737B8247
:102CD4003B461A481946FEF795FB18480821FFF7AA
:102CE400D3F93B4615481946FEF70AFD1348082157
:102CF400FFF730FA3B4611481946FEF76BFE0F48C2
:102D04000821FFF781FA3B460C481946FEF7C0FF3D
:102D14000A480821FFF7CAFA002000F011F8074812
:102D24000121FFF717FB05480121FEF7F3FA683785
:102D3400BD4680BD00100048D34D6210002C0140F8
:102D440080B582B000AF0346FB80FB880A48194671
:102D5400FFF7F6F8FB8808481946FFF7A7F8FB8841
:102D640005481946FFF728F9FB8803481946FFF779
:102D740057F90837BD4680BD002C014080B586B0A8
:102D840000AF19480721FDF70BFD1748FDF7CCFCF0
:102D940003467B61154B3B6113480721FDF748FD52
:102DA4001148FDF7C1FC03467B61104BFB604FF0FB
:102DB4009040FF21FDF7F4FC4FF09040FDF7B4FC88
:102DC40003467B61094BBB604FF09040FF21FDF748
:102DD4002FFD4FF09040FDF7A7FC03467B61034BAA
:102DE4007B601837BD4680BD0004004828330008C6
:102DF40080B582B000AF0346FB71FB791846FFF73C
:102E040079FE0837BD4680BD80B584B000AF034667
:102E14000A46FB711346BB710023FB73FB790F2B2E
:102E240001D90023FB71BB79012B01D90023BB71AC
:102E3400BB79032B16D801A252F823F0512E0008B7
:102E4400572E00085D2E0008632E00088023FB73B4
:102E540008E0C023FB7305E09423FB7302E0D42352
:102E6400FB7300BFFA79FB7B1344DBB21846FFF710
:102E74002FFE1037BD4680BD80B584B000AF7860AA
:102E84000023FB60FB687A6813441B78DBB21846A6
:102E9400FFF7AEFFFB680133FB60012000F03CF953
:102EA400FB687A6813441B78002BEBD11037BD46BE
:102EB40080BD00BF80B500AF0120FFF709FE0120EF
:102EC40000F02AF980BD00BF80B58CB000AF7860F7
:102ED4004FF480200121FEF787F84FF400200121F0
:102EE400FEF782F807233B62002387F8243000238F
:102EF40087F82630032387F82530022387F8273004
:102F040007F120032A481946FDF7DAFA0F23BB61BB
:102F140001233B770023BB7703237B770023FB77D5
:102F240007F1180323481946FDF7CAFA7B680522FE
:102F34009A827B6800221A83786800F03FF81E4A60
:102F440007F10C0310685168926807C30023FB6201
:102F540020E00023BB6217E0FA6A13465B001A44C0
:102F6400BB6A134407F13002134413F8240C796844
:102F7400FA6A13465B001344BA6A13440B440246CC
:102F84001A70BB6A0133BB62BB6A022BE4DDFB6AC5
:102F94000133FB62FB6A032BDBDD06480F21FDF7DF
:102FA40047FC03480721FDF743FC3037BD4680BD8D
:102FB40000040048000800483033000880B485B09D
:102FC40000AF78600023FB6008E07A68FB68134474
:102FD40008335F221A71FB680133FB60FB68052B21
:102FE400F3DD7B6800229A827B6800229A7414378E
:102FF400BD465DF8047B704780B582B000AF4FF4E6
:1030040000300121FDF7F0FF80233B6000233B717A
:103014000123BB7103237B710023FB713B464FF0FB
:1030240090401946FDF74CFA0837BD4680BD00BFF5
:1030340080B483B000AF03463960FB7197F9073061
:10304400002B10DA4FF46D43CEF20003FA7902F04C
:103054000F02A2F104013A68D2B24FEA0212D2B2CC
:103064005B181A760DE04FF46143CEF2000397F932
:1030740007103A68D2B24FEA0212D2B25B1883F850
:10308400002307F10C07BD4680BC704780B582B0B1
:1030940000AF78607B6803F1FF326FF07F439A42A0
:1030A40002D94FF001031DE04EF21003CEF20003EB
:1030B4007A6802F1FF325A604FF0FF304FF00F018F
:1030C400FFF7B6FF4EF21003CEF200034FF00002FA
:1030D4009A604EF21003CEF200034FF007021A601A
:1030E4004FF00003184607F10807BD4680BD00BF36
:1030F40080B500AF40F23803C2F200031A6844F608
:10310400D353C1F26203A3FB02134FEA931318468D
:10311400FFF7BCFF80BD00BF80B483B000AF786010
:1031240040F25803C2F200037A681A6000BF40F20A
:103134005803C2F200031B68002BF8D107F10C07F7
:10314400BD4680BC704700BF80B400AF40F2580356
:10315400C2F200031B68002B0BD040F25803C2F2EA
:1031640000031B6803F1FF3240F25803C2F200036C
:103174001A60BD4680BC704780B500AFFFF7E4FF1E
:1031840080BD00BF80B58EB000AF78603960002389
:103194007B6307F10C031846FFF796FEFFF7A8FFC1
:1031A400FFF72AFF07F108031846FFF72FFBFFF785
:1031B40033FD1420FFF7C4FDFFF7AEFC0D4B3B635A
:1031C4000D4BFB62FFF7DAFDFFF774FE00200021D0
:1031D400FFF71AFE7B6B01337B630848FFF74CFE55
:1031E40000200121FFF710FE0548FFF745FE054BBF
:1031F400BB62EBE73C33000850330008643300083B
:10320400703300087C3300082E2E2F737973746595
:103214006D2F7372632F73746D333266332D737431
:10322400647065726970682F73746D3332663330FD
:10323400785F6770696F2E63000000002E2E2F7375
:10324400797374656D2F7372632F73746D33326683
:10325400332D7374647065726970682F73746D3381
:1032640032663330785F7263632E63002E2E2F73C1
:10327400797374656D2F7372632F73746D33326653
:10328400332D7374647065726970682F73746D3351
:1032940032663330785F74696D2E630061626F72D9
:1032A4007428292C2065786974696E672E2E2E0087
:1032B4002C2066756E6374696F6E3A2000000000FE
:1032C40000000000617373657274696F6E202225BB
:1032D4007322206661696C65643A2066696C6520B6
:1032E400222573222C206C696E65202564257325A4
:1032F400730A00006173736572745F706172616D4B
:103304002829206661696C65643A2066696C6520C9
:10331400222573222C206C696E652025640A000026
:1033240025640A002564200A000000003132333489
:1033340035363738392A302348656C6C6F20415252
:103344004D20576F726C6421000000005379737430
:10335400656D20636C6F636B3A202575487A0A00AB
:10336400476967694D75636300000000362043694F
:0C3374006C656E74616E6F0025640000D3
:103380007856341200000000010203040102030415
:1033900006070809000001000200040006000800FA
:1033A0000A000C0010002000400080000001000016
:1033B000540000200000000000A24A0400000000A9
:1033C0000000000001020304060708093254769841
:040000050800018965
:00000001FF
