:020000040800F2
:1000000000A000204D030008550300085D03000810
:100010008103000889030008AD0300080000000008
:10002000000000000000000000000000D1030008F4
:10003000D903000800000000E10300087D0A000861
:10004000010400080104000801040008010400087C
:10005000010400080104000801040008010400086C
:10006000010400080104000801040008010400085C
:10007000010400080104000801040008010400084C
:10008000010400080104000801040008010400083C
:10009000010400080104000801040008010400082C
:1000A000010400080104000801040008010400081C
:1000B000010400080104000801040008010400080C
:1000C00001040008010400080104000801040008FC
:1000D00001040008010400080104000801040008EC
:1000E00001040008010400080104000801040008DC
:1000F00001040008010400080104000801040008CC
:1001000000000000000000000000000001040008E2
:1001100001040008010400080104000801040008AB
:10012000010400080104000801040008010400089B
:1001300001040008010400080000000000000000A5
:100140000104000801040008010400080000000088
:10015000000000000000000000000000000000009F
:100160000000000000000000010400080104000875
:100170000104000800000000000000000000000072
:10018000000000000104000880B596B000AF00F048
:10019000EFFA5D4B5D4A1A605D4B5C4A1A605D4B3D
:1001A0007B6523E07B6D1A1D7A651B68FB647B6DA4
:1001B0001A1D7A651B68BB647B6D1A1D7A651B6806
:1001C0007B64FB6C7B63BB6C3B637B6CFB623B6B5C
:1001D000BB6207E0BB6A1A1DBA627A6B111D7963B4
:1001E00012681A60FA6ABB6A9A42F3D87B6D4A4A6F
:1001F0009342D7D3444B1B68484A934204D1444BA3
:100200001B68474A934200D0FEE7464B3F4A1A60BC
:10021000454B3E4A1A60454B3B6519E03B6D1A1D44
:100220003A651B683B643B6D1A1D3A651B68FB63AE
:100230003B6C7B62FB6B3B627B6AFB6104E0FB69AE
:100240001A1DFA6100221A603A6AFB699A42F6D8CE
:100250003B6D374A9342E1D3324B1B68002B03D1ED
:10026000314B1B68002B00D0FEE700F087FA07F146
:1002700008023B1D1046194600F05AFA2D4A2E4B33
:10028000D31A9B10BB6100237B6107E02A4A7B697C
:1002900052F8233098477B6901337B61BA697B69E7
:1002A0009A42F3DC254A264BD31A9B10BB610023EC
:1002B0007B6107E0224A7B6952F8233098477B69CB
:1002C00001337B61BA697B699A42F3DCBA687B6867
:1002D0001046194600F0D8FBB8631A4A1A4BD31AD5
:1002E0009B103B613B69FB6008E0FB68013B164AE1
:1002F00052F823309847FB68013BFB60FB68002BFA
:10030000F3DCB86B00F004FA00000020BABADECAD1
:100310002000002008040008200400087856341249
:100320003254769824000020300000202004000879
:1003300030040008300400083004000830040008CD
:1003400030040008300400083004000880B500AF15
:10035000FFF71AFF80B400AF00BEFEE71EF0040FE7
:100360000CBFEFF30880EFF309807146214A104774
:1003700080B483B000AF7860396000BEFEE700BF94
:1003800080B400AF00BEFEE71EF0040F0CBFEFF319
:100390000880EFF309807146174A104780B483B094
:1003A00000AF7860396000BEFEE700BF1EF0040FAA
:1003B0000CBFEFF30880EFF3098071460F4A104736
:1003C00080B483B000AF7860396000BEFEE700BF44
:1003D00080B400AF00BEFEE780B400AF00BEFEE711
:1003E00080B400AF00BEFEE780B400AFBD465DF84C
:1003F000047B7047710300089D030008C1030008D7
:0804000080B400AF00BEFEE76E
:10040800300C00080000002024000020300C0008F8
:10041800000000100000001024000020340000201C
:080428000000001000000010AC
:1004300080B586B000AF7860396000237B6100230F
:100440003B610023FB607B68B3F1904F17D07B6862
:10045000734A934213D07B68724A93420FD07B68F1
:10046000714A93420BD07B68704A934207D07B68F5
:100470006F4A934203D06F48B92100F06DF93B6891
:100480001B68002B03D16B48BA2100F065F93B686B
:100490001B79002B0FD03B681B79012B0BD03B68DD
:1004A0001B79022B07D03B681B79032B03D06148D3
:1004B000BB2100F051F93B68DB79002B0BD03B6886
:1004C000DB79012B07D03B68DB79022B03D059483D
:1004D000BC2100F041F900237B6199E07B69012296
:1004E00002FA03F33B613B681A683B691340FB6007
:1004F000FA683B699A4240F088803B681B79012B7F
:1005000003D03B681B79022B50D13B685B79012BF0
:100510000BD03B685B79022B07D03B685B79032BE0
:1005200003D04448CC2100F017F97B689A687B69B6
:100530005B00194603238B40DB431A407B689A60BB
:100540007B689A683B685B7919467B695B0001FAB6
:1005500003F31A437B689A603B689B79002B07D0B2
:100560003B689B79012B03D03248D32100F0F4F88B
:100570007B689B889AB27B699BB2194601238B40AA
:100580009BB2DB439BB213409AB27B689A807B6834
:100590009B889AB23B689B7919467B699BB201FAAA
:1005A00003F39BB213439AB27B689A807B681A6804
:1005B0007B695B00194603238B40DB431A407B6851
:1005C0001A607B681A683B681B7919467B695B0077
:1005D00001FA03F31A437B681A607B68DA687B6967
:1005E0009BB25B00032101FA03F3DB431A407B68F3
:1005F000DA607B68DA683B68DB7919467B695B0007
:1006000001FA03F31A437B68DA607B6901337B618B
:100610007B690F2B7FF662AF1837BD4680BD00BFE8
:100620000004004800080048000C00480010004882
:1006300000140048200B000880B582B000AF78603D
:100640007B68B3F1904F18D07B680F4A934214D067
:100650007B680E4A934210D07B680D4A93420CD0BF
:100660007B680C4A934208D07B680B4A934204D0C3
:100670000A484FF4A77100F06FF87B681B8A9BB2A1
:1006800018460837BD4680BD0004004800080048F1
:10069000000C00480010004800140048200B00081F
:1006A00080B582B000AF78600B46FB707A68154B5E
:1006B0001340002B02D17B68002B04D1124840F27A
:1006C0005C5100F049F8FB78002B07D0FB78012B38
:1006D00004D00D4840F25D5100F03EF8FB78002B4D
:1006E00006D00A49094B5A697B6813434B6106E0FF
:1006F0000649064B5A697B68DB4313404B61083758
:10070000BD4680BDA8FF81CE540B000800100240FA
:1007100080B483B000AF7860FEE700BF80B582B0E0
:1007200000AF024B7B600120FFF7F2FF840B000853
:1007300080B483B000AF786039607B6801221A60B2
:100740003B68044A1A6000BF0C37BD465DF8047B65
:10075000704700BF0400002080B584B000AF78600F
:100760003960024BFB60FFF7D9FF00BFDC0B0008CC
:1007700080B500AF00F008F880BD00BF80B500AFC5
:1007800000F042F880BD00BF80B500AF1A4A1A4B96
:100790001B6843F0010313601749174B5A68174B46
:1007A00013404B60144A144B1B6823F0847323F4EA
:1007B00080331360104A104B1B6823F480231360AE
:1007C0000D4A0D4B5B6823F4FE0353600A4A0A4B43
:1007D000DB6A23F00F03D3620749074B1A6B084B00
:1007E00013400B63044B00229A6000F077F8054B2E
:1007F0004FF000629A6080BD001002400CC07FF88C
:10080000CCFC00FF00ED00E080B485B000AF002319
:10081000FB600023BB6000237B6000233B602A4B0E
:100820005B6803F00C03FB60FB68042B07D0082B0C
:1008300009D0002B2FD1254B254A1A602FE0234BDE
:10084000234A1A602BE0204B5B6803F47013BB60F3
:100850001D4B5B6803F480337B60BB689B0C0233E9
:10086000BB607B68002B06D1BB681A4A02FB03F30E
:10087000164A136013E0144BDB6A03F00F030133D5
:100880003B60134A3B68B2FBF3F3BA6802FB03F325
:100890000E4A136003E00D4B0D4A1A6000BF0A4B6D
:1008A0005B6803F0F0031B090B4AD35CDBB2FB600F
:1008B000064B1A68FB6822FA03F3044A13601437E4
:1008C000BD465DF8047B7047001002400C0000201C
:1008D00000127A0000093D001000002080B483B0AF
:1008E00000AF00237B6000233B60324A314B1B6822
:1008F00043F4803313602F4B1B6803F400333B60D9
:100900007B6801337B603B68002B03D17B68B3F5C8
:10091000A06FF0D1274B1B6803F40033002B02D0EB
:1009200001233B6001E000233B603B68012B3CD18D
:10093000214B12221A601F4A1E4B5B6853601D4AEE
:100940001C4B5B6853601B4A1A4B5B6843F4806323
:100950005360184A174B5B6823F47C135360154AA5
:10096000144B5B6843F4E8135360124A114B1B6845
:1009700043F08073136000BF0E4B1B6803F00073DD
:10098000002BF9D00B4A0B4B5B6823F00303536039
:10099000084A084B5B6843F00203536000BF054BF5
:1009A0005B6803F00C03082BF9D10C37BD465DF8EA
:1009B000047B7047001002400020024080B582B0E6
:1009C00000AF4FF400200121FFF76AFE4FF470538F
:1009D0003B6000233B710123BB7103237B71002328
:1009E000FB713B460D481946FFF722FD4FF440438B
:1009F0003B6000233B710123BB7103237B71022306
:100A0000FB713B4605481946FFF712FD4FF40020E5
:100A10000121FFF745FE0837BD4680BD00080048AC
:100A200080B584B000AF78600A48FFF705FE034642
:100A3000FB6001227B6802FA03F31A46FB6813404D
:100A4000002B14BF01230023DBB218461037BD462C
:100A500080BD00BF0008004880B400AF064B1B6893
:100A6000002B04D0044B1B68013B034A1360BD46B6
:100A70005DF8047B704700BF2C00002080B500AFFC
:100A8000FFF7EAFF80BD00BF80B58EB000AF786091
:100A90003960FFF793FF204B7B63204B3B630F20B4
:100AA000FFF7BEFF0346002B14BF01230023DBB278
:100AB0003B720E20FFF7B4FF0346002B14BF012347
:100AC0000023DBB27B720D20FFF7AAFF0346002B49
:100AD00014BF01230023DBB2BB720C20FFF7A0FF81
:100AE0000346002B14BF01230023DBB2FB720B2053
:100AF000FFF796FF0346002B14BF01230023DBB250
:100B00003B730A20FFF78CFF0346002B14BF012321
:100B10000023DBB27B73C2E7080C00081C0C000842
:100B20002E2E2F73797374656D2F7372632F737408
:100B30006D333266332D7374647065726970682F1B
:100B400073746D3332663330785F6770696F2E630C
:100B5000000000002E2E2F73797374656D2F737251
:100B6000632F73746D333266332D737464706572E2
:100B70006970682F73746D3332663330785F7263D7
:100B8000632E630061626F727428292C2065786976
:100B900074696E672E2E2E002C2066756E63746944
:100BA0006F6E3A2000000000000000006173736562
:100BB0007274696F6E2022257322206661696C65EC
:100BC000643A2066696C6520222573222C206C69AA
:100BD0006E65202564257325730A000061737365B3
:100BE00072745F706172616D2829206661696C653D
:100BF000643A2066696C6520222573222C206C697A
:100C00006E652025640A000048656C6C6F204152B7
:100C10004D20576F726C642100000000537973748B
:100C2000656D20636C6F636B3A202575487A0A0006
:100C300078563412280000200000000000A24A0468
:100C4000000000000000000001020304060708097C
:040C5000325476980C
:040000050800018965
:00000001FF
